:100000000C945D000C9485000C9485000C94850084
:100010000C9485000C9485000C9485000C9485004C
:100020000C9485000C9485000C9485000C94F200CF
:100030000C9485000C9485000C9485000C9485002C
:100040000C9427030C9485000C9485000C94850077
:100050000C9485000C9485000C9485000C9485000C
:100060000C9485000C94850000000007000201003C
:100070000003040600000000000000000102040864
:100080001020408001020408102001020408102002
:10009000040404040404040402020202020203032E
:1000A0000303030300000000250028002B000000CC
:1000B0000000240027002A00EA0011241FBECFEF11
:1000C000D8E0DEBFCDBF11E0A4E0B1E001C01D92D9
:1000D000A933B107E1F711E0A0E0B1E0ECE2F8E00C
:1000E00002C005900D92A430B107D9F710E0CAEB19
:1000F000D0E004C02297FE010E941004C83BD10743
:10010000C9F70E94F5030C9414040C9400000895A0
:100110006CE070E087E091E00E9448026DE070E0E2
:1001200084E091E00E94480264EA76E084E091E095
:100130000E945C0264E175E087E091E00E945C024D
:1001400068EB7BE080E090E00E94940364E175E05E
:1001500084E091E00E945C0264EA76E087E091E04E
:100160000E945C0268EB7BE080E090E00E949403D8
:1001700064E175E084E091E00E945C0264E175E076
:1001800087E091E00E945C0268EB7BE080E090E019
:100190000E94940364EA76E084E091E00E945C02AD
:1001A00064EA76E087E091E00E945C0268EB7BE025
:1001B00080E090E00E94940387E091E00E944E026C
:1001C00084E091E00E944E0268EB7BE080E090E0EA
:1001D0000C94940387E091E00E94AE0184E091E0EA
:1001E0000C94AE011F920F920FB60F9211242F9311
:1001F0003F934F935F936F937F938F939F93AF93AF
:10020000BF93EF93FF9380910B0187FF05C010927E
:100210008500109284001AC020910B01332727FD1E
:10022000309580910A0190E0281739077CF480917D
:100230000B01992787FD9095FC01EE0FFF1FE80F3A
:10024000F91FE45FFE4F808186FD15C080910B0190
:100250008F5F80930B0120910B01332727FD309591
:1002600080910A0190E028173907BCF480910B01B6
:100270008C305CF112C080910B01992787FD90951D
:10028000FC01EE0FFF1FE80FF91FE45FFE4F8081B6
:1002900060E08F730E94F102D9CF80918400909129
:1002A0008500049680349C4918F480E49CE905C0DC
:1002B00080918400909185000496909389008093AA
:1002C00088008FEF80930B0138C08091840090915B
:1002D000850020910B01332727FD3095F901EE0FA2
:1002E000FF1FE20FF31FE45FFE4F21813281820F77
:1002F000931F909389008093880080910B01992728
:1003000087FD9095FC01EE0FFF1FE80FF91FE45FDA
:10031000FE4F808186FF11C080910B01992787FDD8
:100320009095FC01EE0FFF1FE80FF91FE45FFE4FF1
:10033000808161E08F730E94F102FF91EF91BF9184
:10034000AF919F918F917F916F915F914F913F916D
:100350002F910F900FBE0F901F90189520910A01BA
:100360002C30A0F431E0320F30930A01FC012083DD
:10037000822F90E0FC01EE0FFF1FE80FF91FE45FF2
:10038000FE4F88EB9BE09283818308952FEFFC0161
:1003900020830895DF92EF92FF920F931F93CF93E4
:1003A000DF93EC01D62E7A01890188818C3008F028
:1003B00066C061E08D2D0E94B8028881A82FB0E050
:1003C000FD01EE0FFF1FEA0FFB1FE45FFE4F2D2D17
:1003D0002F739081907C922B908360E272E06E1973
:1003E0007F0977FF02C06D5F7F4F759567957595A3
:1003F0006795698340E659E0401B510B57FF02C0E7
:100400004D5F5F4F55954795559547954A836CE0ED
:100410000E9402049CE0899FB001112420E030E09A
:10042000A901460F571FFA01EE0FFF1FE40FF51F3A
:10043000E45FFE4F908196FD16C02F5F3F4F2C303A
:10044000310571F781110FC01092800082E0809316
:1004500081001092850010928400B19A80916F0003
:10046000826080936F00888190E0FC01EE0FFF1F97
:10047000E80FF91FE45FFE4F8081806480838881EC
:10048000DF91CF911F910F91FF90EF90DF90089532
:1004900020E639E040E252E00C94CA01FC01808180
:1004A00090E0FC01EE0FFF1FE80FF91FE45FFE4F25
:1004B00080818F7B80830895FC0180818C3070F572
:1004C000918128E830E0291B310997FD3395220FEF
:1004D000331F220F331F621773077CF0928128E5C8
:1004E00032E0291B310997FD3395220F331F220F6C
:1004F000331F621773070CF49B014FB7F89490E019
:10050000FC01EE0FFF1FE80FF91FE45FFE4F2250C2
:100510003109220F331F328321834FBF0895833067
:1005200081F028F4813099F08230A1F0089586306E
:10053000A9F08730B9F08430D1F4809180008F7DAC
:1005400003C0809180008F7780938000089584B5E8
:100550008F7702C084B58F7D84BD08958091B000EF
:100560008F7703C08091B0008F7D8093B000089595
:10057000CF93DF9390E0FC01E458FF4F2491FC01FE
:10058000E057FF4F8491882349F190E0880F991F2D
:10059000FC01E255FF4FA591B4918C559F4FFC0192
:1005A000C591D4919FB7611108C0F8948C912095A2
:1005B00082238C93888182230AC0623051F4F8949C
:1005C0008C91322F309583238C938881822B888362
:1005D00004C0F8948C91822B8C939FBFDF91CF91B4
:1005E00008950F931F93CF93DF931F92CDB7DEB77C
:1005F000282F30E0F901E859FF4F8491F901E458C0
:10060000FF4F1491F901E057FF4F04910023C9F007
:10061000882321F069830E948F026981E02FF0E036
:10062000EE0FFF1FEC55FF4FA591B4919FB7F894C3
:100630008C91611103C01095812301C0812B8C9393
:100640009FBF0F90DF91CF911F910F9108951F923F
:100650000F920FB60F9211242F933F938F939F9376
:10066000AF93BF938091310190913201A0913301FA
:10067000B09134013091300123E0230F2D3720F465
:100680000196A11DB11D05C026E8230F0296A11DEC
:10069000B11D209330018093310190933201A093DA
:1006A0003301B09334018091350190913601A091CE
:1006B0003701B09138010196A11DB11D809335011C
:1006C00090933601A0933701B0933801BF91AF9159
:1006D0009F918F913F912F910F900FBE0F901F9080
:1006E00018953FB7F8948091350190913601A0910B
:1006F0003701B091380126B5A89B05C02F3F19F0EE
:100700000196A11DB11D3FBF6627782F892F9A2F13
:10071000620F711D811D911D42E0660F771F881FBA
:10072000991F4A95D1F70895CF92DF92EF92FF92E9
:10073000CF93DF936B017C010E947103EB01C11425
:10074000D104E104F10479F00E9471036C1B7D0B6C
:10075000683E7340A0F381E0C81AD108E108F108AF
:10076000C851DC4FECCFDF91CF91FF90EF90DF903D
:10077000CF900895789484B5826084BD84B58160FB
:1007800084BD85B5826085BD85B5816085BDEEE699
:10079000F0E0808181608083E1E8F0E01082808178
:1007A00082608083808181608083E0E8F0E08081E6
:1007B00081608083E1EBF0E0808184608083E0EB06
:1007C000F0E0808181608083EAE7F0E080818460EE
:1007D000808380818260808380818160808380814A
:1007E000806880831092C10008950E94BA030E941D
:1007F0008700C0E0D0E00E9488002097E1F30E94CB
:100800000000F9CF991B79E004C0991F961708F0F2
:10081000961B881F7A95C9F780950895EE0FFF1FE4
:0C0820000590F491E02D0994F894FFCFAE
:04082C0001000000C7
:00000001FF
