:100000000C9449000C9471000C9471000C947100D4
:100010000C9471000C9471000C9471000C9471009C
:100020000C9471000C9471000C9471000C9471008C
:100030000C9471000C9471000C9471000C9471007C
:100040000C94B20C0C9471000C94500B0C94930B08
:100050000C9471000C9471000C9471000C9471005C
:100060000C9471000C94710007634236B79BD8A7BB
:100070001A39685618AEBAAB558C1D3CB7CC5763CD
:10008000BD6DEDFD753EF6177231BF000000803F7B
:100090004F0C11241FBECFEFD8E0DEBFCDBF12E062
:1000A000A0E0B1E0E4EEF1E202C005900D92AA31C9
:1000B000B107D9F716E0AAE1B2E001C01D92AD3751
:1000C000B107E1F710E0C2E9D0E004C02297FE01D9
:1000D0000E947810C039D107C9F70E94A50C0C9472
:1000E000F0100C94000040E855E260E070E08AEC0B
:1000F00095E00E94CE0B83E00E9434080E945108D4
:1001000081E090E09093BF058093BE0580E090E091
:1001100020E030E0F901E655FA4F918380830196A3
:100120002E5F3F4F8A309105ACF39093C5058093C5
:10013000C40508952F923F924F925F926F927F92E3
:100140008F929F92AF92BF92CF92DF92EF92FF92E7
:100150000F931F93CF93DF9300D01F92CDB7DEB7DD
:100160001092C5051092C4058091C4059091C505F3
:100170000A970CF0B7C18AEC95E00E94C40865E0CC
:1001800071E08AEC95E00E94BB086091C405709113
:10019000C5054AE050E08AEC95E00E948D096AE1CD
:1001A00071E08AEC95E00E94BB081092C90510929C
:1001B000C8058091C8059091C905873091052CF537
:1001C0002091C4053091C50547E0429FF001439F4F
:1001D000F00D1124E80FF91FEB54FE4F4AE050E0F8
:1001E00060818AEC95E00E94B20962E871E08AECD5
:1001F00095E00E94BB088091C8059091C9050196C1
:100200009093C9058093C805D4CF63E271E08AEC6E
:1002100095E00E94BB081092C9051092C805809114
:10022000C8059091C905E091C405F091C5058430D9
:100230009105FCF4EE0FFF1FEE0FFF1FE80FF91FF3
:10024000E357FE4F4AE050E060818AEC95E00E945F
:10025000B20962E871E08AEC95E00E94BB088091E7
:10026000C8059091C90501969093C9058093C8056A
:10027000D6CF70919A0560919B0550919C05409155
:100280009D053091C6052091C70587E08E9F7001BE
:100290008F9FF00C1124D701AB54BE4F7D011B8200
:1002A0001A8200E010E0083011050CF064C0EA8109
:1002B000FB81E659FB4F4F01E052FF4F2080318018
:1002C000228129837380C12CD12CA12CB12CF70160
:1002D000EA0DFB1D608170E080E090E00E946C0EF2
:1002E000F401EC0DFD1D20813181428153810E947A
:1002F000B50F9B01AC01B1018981972D0E94380D8A
:100300002B013C013FEFA31AB30A40E2C40ED11CFB
:1003100087E0A816B10419F012016982D8CFC30191
:10032000B20190580E940D0EAA81BB81A658BA4F07
:100330006D0120E030E040E85FE30E94380D9B0152
:10034000AC0160E070E080E89FE30E94A00DF60140
:1003500060837183828393830F5F1F4F2A813B8168
:100360002C5F3F4F3B832A83742D652D562D472DDF
:1003700037E020E098CF00E010E01B821A828A81EB
:100380009B81843091050CF05EC0C80186529C4F61
:100390006C01FC01E058FF4F9AE7A92E95E0B92EB9
:1003A0003080818092807380E12CF12CD5016D9199
:1003B0007D918D919D915D01F601EE0DFF1D2081D6
:1003C0003181428153810E94B50F9B01AC01632DA5
:1003D000782D892D972D0E94380D2B013C01B0E11D
:1003E000EB0EF11CE0E8EE16F10421F0342C852C24
:1003F000962CDCCF90580E940D0E980126593A4F4A
:10040000790120E030E040E85FE30E94380D9B0175
:10041000AC0160E070E080E89FE30E94A00DD7018E
:100420006D937D938D939C931397EA81FB81319615
:10043000FB83EA830C5F1F4F742D652D562D472DCE
:1004400038E020E09CCF9093C9058093C805872FA2
:10045000962FA52FB42F80939A0590939B05A09378
:100460009C05B0939D053093C6052093C7056DE2AA
:1004700071E08AEC95E00E94BB081092C9051092C9
:10048000C805E091C805F091C905E430F10504F50F
:10049000EE0FFF1FEE0FFF1FE659FA4F408151810B
:1004A0006281738125E030E08AEC95E00E94A40A25
:1004B00062E871E08AEC95E00E94BB088091C80573
:1004C0009091C90501969093C9058093C805D9CF2D
:1004D0008091C4059091C50501969093C5058093C0
:1004E000C40542CE0F900F900F90DF91CF911F91D6
:1004F0000F91FF90EF90DF90CF90BF90AF909F90C3
:100500008F907F906F905F904F903F902F900895C5
:100510002F923F924F925F926F927F928F929F9213
:10052000AF92BF92CF92DF92EF92FF920F931F9301
:10053000CF93DF93CDB7DEB76B970FB6F894DEBFDE
:100540000FBECDBF1092C9051092C8058091C80595
:100550009091C90508970CF072C01092C7051092CF
:10056000C605E091C605F091C7058091C805909138
:10057000C905E830F1050CF05CC033E0EE0FFF1F59
:100580003A95E1F7E80FF91FEE0FFF1FEE0FFF1F7F
:10059000E655FD4F108211821282138264E670E0EC
:1005A00080E090E00E9459080E946C0E20E030E04C
:1005B00048EC52E40E94A00D6093A2057093A3053D
:1005C0008093A4059093A5050091C6051091C705D9
:1005D000780153E0EE0CFF1C5A95E1F72091C80515
:1005E0003091C905E20EF31EEE0CFF1CEE0CFF1C51
:1005F000970126593B4F790120E030E040E05FE36E
:100600000E94370D9B01AC010E94380D20E030E0C4
:1006100040E05FE30E94B50FD7016D937D938D930A
:100620009C9313970F5F1F4F1093C7050093C60548
:1006300098CF01969093C9058093C80587CF1092F3
:10064000C9051092C8058091C8059091C905049705
:100650000CF070C01092C7051092C605E091C60557
:10066000F091C7058091C8059091C905E930F10561
:100670000CF05AC0EE0FFF1FEE0FFF1FE80FF91F1F
:10068000EE0FFF1FEE0FFF1FE65EFD4F108211827F
:100690001282138264E670E080E090E00E945908C4
:1006A0000E946C0E20E030E048EC52E40E94A00D65
:1006B0006093A2057093A3058093A4059093A5056C
:1006C0000091C6051091C7057801EE0CFF1CEE0CD9
:1006D000FF1C2091C8053091C905E20EF31EEE0CF7
:1006E000FF1CEE0CFF1CF701E652FC4F7F0120E0DF
:1006F00030E040E05FE30E94370D9B01AC010E94B7
:10070000380D20E030E040E05FE30E94B50FD701F4
:100710006D937D938D939C9313970F5F1F4F109351
:10072000C7050093C6059ACF01969093C90580939B
:10073000C80589CF67E371E08AEC95E00E94D8088C
:100740000E949A0081E090E0A0E0B0E08093A605CE
:100750009093A705A093A805B093A9058091A6053D
:100760009091A705A091A805B091A9058F3F9F4F33
:10077000AF4FBF4709F4FFC31092C5051092C405DF
:100780004091C4055091C5054A30510564F56AE0B1
:1007900070E080E090E00E9459087093C305609378
:1007A000C2052091C4053091C505F901EE0FFF1F68
:1007B000E655FA4F408151815093C1054093C005E1
:1007C000DB01AA0FBB1FA655BA4F8D919C911197C3
:1007D000918380834D935C932F5F3F4F3093C5058A
:1007E0002093C405CDCF10929E0510929F051092C4
:1007F000A0051092A1051092C3051092C205809128
:10080000C6059091C7052091C8053091C905642F90
:10081000452F10E000E0312C212CB0919A05BD83CA
:10082000E0919B05EF83F0919C05F98750919D0520
:100830005B871E8A1D8A188A1F86AF85B889AA30F1
:10084000B1050CF00DC3ED89FE89E655FA4F8081A4
:1008500091819E878D87E7E0E89FD001E99FB00DE9
:100860001124AB54BE4FBC83AB838AE495E02AE7E6
:1008700035E03A832983E981FA81EA59F54009F4A0
:100880004FC0DC014D905D906D907D907D01C12C3D
:10089000D12CA12CB12C4C01B0EE8B1A9108EB811C
:1008A000FC81EA0DFB1D608170E080E090E00E9419
:1008B0006C0EF401EC0DFD1D2081318142815381CC
:1008C0000E94B50F9B01AC01C301B2010E94380D1B
:1008D000EFEFAE1ABE0AF0E2CF0ED11C27E0A2164F
:1008E000B10419F02B013C01DACF90580E940D0E93
:1008F00020E030E040E85FE30E94380D9B01AC014E
:1009000060E070E080E89FE30E94A00DA981BA81B9
:100910006D937D938D939D93BA83A983C701ABCFCC
:100920004AE655E05C874B878D859E85880F991F29
:10093000880F991F83579E4F9E838D838AE594E08D
:10094000AAEAB3E0BA87A98718861F82BAE7CB2E36
:10095000B5E0DB2EFC0181909190A190B190FA83DB
:10096000E9831A8A198A7C01F0E8EF1AF108D601A6
:100970006D917D918D919D916D01E989FA89EE0DC1
:10098000FF1D20813181428153810E94B50F9B015F
:10099000AC01C501B4010E94380D2B013C01E9896D
:1009A000FA897096FA8BE98BE038F10519F053015A
:1009B0004201DDCF90580E940D0E20E030E040E86B
:1009C0005FE30E94380D9B01AC0160E070E080E8BD
:1009D0009FE30E94A00D6B017C01AB85BC856D93EC
:1009E0007D938D939D93BC87AB87ED81FE812F8195
:1009F0003885E20FF31F608170E080E090E00E9494
:100A00006C0EA70196010E94370D4B015C01A701F6
:100A100096010E94B50F698B7A8B8B8B9C8BA701FB
:100A2000960160E070E080E89FE30E94370D9B0133
:100A3000AC0169897A898B899C890E94B50FA98547
:100A4000BA856D937D938D939D93BA87A98720E096
:100A500030E040E05FE3C501B4010E94B50FA5019D
:100A600094010E94B50F9B01AC01612F702F832D63
:100A7000922D0E94380D698B7F8B888F998F8F8183
:100A8000988501968430910549F019890F89388C31
:100A9000298C98878F8389819A8158CFEAEDF3E07A
:100AA000FB8FEA8F2AEB33E03A832983AAE72A2EC9
:100AB000A5E03A2E4D825F8269867B8688E090E0D1
:100AC0003AE9231635E0330609F456C00AEA13E082
:100AD000E12CF12C412C512C612C712CD8016D9101
:100AE0007D918D919D918D01EA8DFB8DEE0DFF1D08
:100AF00020813181428153810E94B50F9B01AC015D
:100B0000B201C3010E94380D2B013C01B4E0EB0E91
:100B1000F11CE0E1EE16F10409F7D101CD90DD9072
:100B2000ED90FD901D01A70196010E94B50F4B01AC
:100B30005C01A701960160E070E080E89FE30E94FD
:100B4000370D9B01AC01C501B4010E94B50FE981CD
:100B5000FA816193719381939193FA83E9832A8D4A
:100B60003B8D205F3F4F3B8F2A8F84E090E04D828A
:100B70005F8269867B86A4CF7AEA672E72E0772E41
:100B8000EAE82E2EE3E03E2EFAE64F2EF4E05F2E4A
:100B90004AE455E05A834983AAEBB3E0BB8FAA8F9E
:100BA000AA8DBB8DAA5DB34009F49AC02AE939E940
:100BB00049E95EE3EA8DFB8D6081718182819381D9
:100BC0000E94B50F6B017C0126E636E646E65FE340
:100BD000D1016D917D918D919C910E94B50F9B01EA
:100BE000AC01C701B6010E94380D9B01AC01F101B7
:100BF00061937193819391931F01A981BA816D9142
:100C00007D918D919C910E94380DE981FA816193CB
:100C1000719381939193FA83E98300E010E0E12CD2
:100C2000F12C6301C00ED11EEB81FC81EE0DFF1D86
:100C3000608170E080E090E00E946C0E2AE939E962
:100C400049E95EE30E94B50FAA8DBB8D2D913D91C0
:100C50004D915C910E94B50F4B015C0126E636E692
:100C600046E65FE3F60160817181828193810E9493
:100C7000B50F9B01AC01C501B4010E94380D9B0169
:100C8000AC01D6016D937D938D939C931397620174
:100C9000C00ED11EF60160817181828193810E9414
:100CA000380DD6016D937D938D939C931397BFEF71
:100CB000EB1AFB0A005E1F4FE7E0EE16F10409F0A5
:100CC000B0CF2A8D3B8D2C5F3F4F3B8F2A8F34E076
:100CD000630E711C44E0440E511C87E090E060CF2D
:100CE0003AE1E32E32E0F32E4AE9242E42E0342E9C
:100CF0005AE5852E54E0952E6AEDC62E63E0D62E79
:100D00002AEA33E03A832983A981BA81AA5BB340F6
:100D100009F491C02AE939E949E95EE3A981BA8178
:100D20006D917D918D919C910E94B50F2B013C019D
:100D300026E636E646E65FE3F10160817181828155
:100D400093810E94B50F9B01AC01C301B2010E94C7
:100D5000380D9B01AC01D1016D937D938D939D93D3
:100D60001D01F40160817181828193810E94380D9F
:100D7000D4016D937D938D939D934D01EAE7F5E04A
:100D8000FC83EB8300E010E0AB81BC816D917D9131
:100D90008D919D91BC83AB835701A00EB11E2AE9B2
:100DA00039E949E95EE30E94B50FE981FA812081C2
:100DB0003181428153810E94B50F2B013C0126E60F
:100DC00036E646E65FE3D5016D917D918D919C916C
:100DD0000E94B50F9B01AC01C301B2010E94380D06
:100DE0009B01AC01F501608371838283938356017B
:100DF000A00EB11ED5016D917D918D919C910E94A7
:100E0000380DF5016083718382839383005F1F4FE8
:100E10000038110509F0B8CF29813A812C5F3F4F86
:100E20003A83298334E0E30EF11C44E0C40ED11C64
:100E300088E090E069CF2F8538892F5F3F4F388B4E
:100E40002F874D895E894E5F5F4F5E8B4D8B24E00F
:100E500030E06D854E8519890F89388C298CEDCC51
:100E60009093C7058093C6053093C9052093C805A4
:100E70006093C4054093C505B093C305A093C20514
:100E8000812F902FA32DB22D80939E0590939F05C7
:100E9000A093A005B093A1058D819F81A985BB85F5
:100EA00080939A0590939B05A0939C05B0939D0514
:100EB0008091BE059091BF0501979093BF058093E7
:100EC000BE05892B09F047C08AEC95E00E94C40852
:100ED0008AEC95E00E94C40863E571E08AEC95E035
:100EE0000E94BB084091A6055091A7056091A805F6
:100EF0007091A9052AE030E08AEC95E00E94430950
:100F000063E671E08AEC95E00E94BB0840919E0583
:100F100050919F056091A0057091A10525E030E0FA
:100F20008AEC95E00E94A60A0E949A008091A6058C
:100F30009091A705A091A805B091A9050197A105D9
:100F4000B10519F487EE93E002C088EE93E0909328
:100F5000BF058093BE0527E137EB41ED59E3609172
:100F60009E0570919F058091A0059091A1050E941A
:100F70009C0D87FF6DC08AEC95E00E94C4088AEC46
:100F800095E00E94C40863E571E08AEC95E00E9458
:100F9000BB084091A6055091A7056091A8057091E6
:100FA000A9052AE030E08AEC95E00E94430963E657
:100FB00071E08AEC95E00E94BB0840919E0550913B
:100FC0009F056091A0057091A10525E030E08AECB5
:100FD00095E00E94A60A0E949A008AEC95E00E9481
:100FE000C4088AEC95E00E94C4086EE671E08AECC1
:100FF00095E00E94D80864E871E08AEC95E00E94D0
:10100000D8088AEC95E00E94C4088AEC95E00E941A
:10101000C40881E090E09093BF058093BE056B9675
:101020000FB6F894DEBF0FBECDBFDF91CF911F91F9
:101030000F91FF90EF90DF90CF90BF90AF909F9077
:101040008F907F906F905F904F903F902F9008957A
:101050008091A6059091A705A091A805B091A9053A
:101060000196A11DB11D72CB8E3008F08E50877095
:101070002091040190E4299F90011124822B8093F8
:101080007C0080917A00806480937A0080917A005D
:1010900086FDFCCF809178002091790090E0922B22
:1010A0000895009729F0BC0180E090E00C94DF10D7
:1010B0000895CF93DF9300D000D0CDB7DEB79B016A
:1010C000AC01611571058105910569F069833A8369
:1010D0004B835C830E94DA1029813A814B815C81C9
:1010E0000E944C1003C060E070E0CB010F900F90A5
:1010F0000F900F90DF91CF910895CF92DF92EF92F2
:10110000FF920F931F93CF93DF936C017A01EB0152
:10111000E60EF71E00E010E0CE15DF0561F06991E4
:10112000D601ED91FC910190F081E02DC601099569
:10113000080F191FF1CFC801DF91CF911F910F91B7
:10114000FF90EF90DF90CF9008956115710581F0C9
:10115000DB010D900020E9F7AD0141505109461B1C
:10116000570BDC01ED91FC910280F381E02D099495
:1011700080E090E008950C94A508DC01ED91FC91CD
:101180000190F081E02D09940F931F93CF93DF938B
:10119000EC016DE00E94BD088C016AE0CE010E9466
:1011A000BD08800F911FDF91CF911F910F9108957E
:1011B0000F931F93CF93DF93EC010E94A5088C013E
:1011C000CE010E94C408800F911FDF91CF911F9123
:1011D0000F9108958F929F92AF92BF92CF92DF921C
:1011E000EF92FF920F931F93CF93DF93CDB7DEB7AC
:1011F000A1970FB6F894DEBF0FBECDBF7C01C42E01
:10120000E52FCB01D22E19A221E02D1510F02AE0F6
:10121000D22E8E010F5D1F4F8D2C912CA12CB12C45
:101220006C2D7E2FA50194010E942A108C2DD29E38
:1012300080191124015011098A3014F4805D01C015
:10124000895CF8018083211531054105510521F0A4
:10125000C22EE32FCA01E4CFB801C7010E94A5083E
:10126000A1960FB6F894DEBF0FBECDBFDF91CF9130
:101270001F910F91FF90EF90DF90CF90BF90AF90B4
:101280009F908F900895CF92DF92EF92FF920F93ED
:101290001F93CF93DF93EC016A017B012115310588
:1012A00079F4E881F9810190F081E02D642FDF91DC
:1012B000CF911F910F91FF90EF90DF90CF90099405
:1012C0002A303105E9F477FF1AC06DE20E94BD08AB
:1012D0008C0144275527BA014C195D096E097F0915
:1012E0002AE0CE010E94EA08800F911FDF91CF9182
:1012F0001F910F91FF90EF90DF90CF9008952AE01B
:10130000B701A601CE01DF91CF911F910F91FF9000
:10131000EF90DF90CF900C94EA080F931F93CF9338
:10132000DF93EC019A01AB01662757FD6095762F9C
:101330000E9443098C01CE010E94C408800F911FB6
:10134000DF91CF911F910F9108952115310541F43F
:10135000DC01ED91FC910190F081E02D642F099466
:101360000C94EA089A01462F50E060E070E00C947B
:10137000A5094F925F926F927F928F929F92AF9248
:10138000BF92CF92DF92EF92FF920F931F93CF9372
:10139000DF93EC016A017B01B22E9A01AB01C70118
:1013A000B6010E941810882319F06BEF71E027C076
:1013B00026013701E89477F82FEF3FEF4FE75FE71B
:1013C000C301B2010E94181081110DC02FEF3FEF31
:1013D0004FE75FE7C301B2010E949C0D18161CF491
:1013E0006FEF71E00CC02FEF3FEF4FE75FE4C701F5
:1013F000B6010E94410F1816ACF463E072E0CE0112
:10140000DF91CF911F910F91FF90EF90DF90CF90E0
:10141000BF90AF909F908F907F906F905F904F9014
:101420000C94A5082FEF3FEF4FE75FECC701B60123
:101430000E949C0D87FDE1CF20E030E0A901C701AB
:10144000B6010E949C0D87FF0AC06DE2CE010E948A
:10145000BD088C01F7FAF094F7F8F09402C000E0B0
:1014600010E0A12C60E070E080E09FE3AB1441F05D
:1014700020E030E040E251E40E94A00DA394F6CFBA
:101480009B01AC01C701B6010E94380D6B017C01C4
:101490000E943E0E2B013C010E946A0E9B01AC0192
:1014A000C701B6010E94370D6B017C012AE0B30130
:1014B000A201CE010E94EA08080F191FBB2039F0D3
:1014C00067E072E0CE010E94A508080F191F7B2C6F
:1014D000772041F120E030E040E251E4C701B6015D
:1014E0000E94B50F6B017C010E94390E4B01AA24AA
:1014F00097FCA094BA2C2AE030E0B501A401CE01FB
:101500000E944309080F191FC501B4010E946C0E07
:101510009B01AC01C701B6010E94370D6B017C0134
:101520007A94D6CFC801DF91CF911F910F91FF9090
:10153000EF90DF90CF90BF90AF909F908F907F9073
:101540006F905F904F9008950C94B9090F931F937B
:10155000CF93DF93EC010E94B9098C01CE010E9468
:10156000C408800F911FDF91CF911F910F910895B3
:10157000FC0124853585F901E05CFF4F8081918174
:10158000F901EE5BFF4F20813181821B930B8F733A
:1015900099270895FC0184859585FC01E05CFF4F47
:1015A00040815181FC01EE5BFF4F20813181421768
:1015B000530741F00190F081E02DE80FF91F808181
:1015C00090E008958FEF9FEF0895FC018485958545
:1015D000FC01E05CFF4F40815181FC01EE5BFF4F5D
:1015E000208131814217530779F0A081B181A80F82
:1015F000B91F8C91208131812F5F3F4F2F7333278B
:101600003183208390E008958FEF9FEF0895FC01D0
:1016100081A1882329F0A489B5898C9186FFFBCF0D
:1016200011A20895CF93DF93FC0126853785D90158
:10163000A05CBF4F8D919C91119701968F73992754
:10164000E901CE5BDF4F4881598184179507D9F3B3
:101650000D90BC91A02DA20FB31F6C93A685B785EA
:10166000A05CBF4F11969C938E93A689B7892C914D
:1016700081E090E0078C02C0880F991F0A94E2F77E
:10168000282B2C9381E081A30488F589E02D8081AB
:101690008064808381E090E0DF91CF910895089588
:1016A0001F920F920FB60F9211242F933F934F93D7
:1016B0008F939F93EF93FF938091C00082FD1CC096
:1016C0004091C600809170069091710601968F73CB
:1016D000992720917206309173068217930771F053
:1016E000E0917006F0917106E05DF94F40839093B0
:1016F00071068093700602C08091C600FF91EF9141
:101700009F918F914F913F912F910F900FBE0F900E
:101710001F9018958AEC95E00E94B80A892B11F069
:101720000C944F0B08951F920F920FB60F92112435
:101730002F933F938F939F93EF93FF9320912C06CA
:1017400030912D0680912E0690912F06281739078B
:1017500031F48091C1008F7D8093C10014C0E0916D
:101760002E06F0912F06E451FA4F208180912E062B
:1017700090912F0601968F73992790932F0680934F
:101780002E062093C600FF91EF919F918F913F917C
:101790002F910F900FBE0F901F901895CF92DF9250
:1017A000EF92FF92CF93DF93EC016A017B01411529
:1017B00081EE580761057105F9F0EC89FD8981E03A
:1017C00090E008A002C0880F991F0A94E2F7808376
:1017D00060E079E08DE390E0A70196010E942A1075
:1017E000215031094109510956954795379527955B
:1017F000211580E1380798F0EC89FD89108260E8B6
:1018000074E88EE190E0A70196010E942A10215011
:101810003109410951095695479537952795E8892A
:10182000F9893083EA89FB89208319A2EE89FF892F
:10183000408181E090E09C010C8C02C0220F331F9C
:101840000A94E2F7422B4083EE89FF8940819C0194
:101850000D8C02C0220F331F0A94E2F7422B408303
:10186000EE89FF8940819C010E8C02C0220F331F3C
:101870000A94E2F7422B4083EE89FF8920810F8C86
:1018800002C0880F991F0A94E2F780958223808313
:10189000DF91CF91FF90EF90DF90CF90089510925D
:1018A000CD051092CC0588EE93E0A0E0B0E08093E7
:1018B000CE059093CF05A093D005B093D1058DE0D0
:1018C00092E09093CB058093CA0580E396E09093D5
:1018D000D7058093D6058CEE95E09093D90580933B
:1018E000D80585EC90E09093DB058093DA0584ECD5
:1018F00090E09093DD058093DC0580EC90E0909380
:10190000DF058093DE0581EC90E09093E105809304
:10191000E00582EC90E09093E3058093E20586EC8D
:1019200090E09093E5058093E40584E08093E605DC
:1019300083E08093E70587E08093E80585E0809366
:10194000E90581E08093EA0508950E94FC0C0E945D
:101950007300CAE8DBE00E9488022097E1F30E944E
:101960008A0BF9CF1F920F920FB60F9211242F936B
:101970003F938F939F93AF93BF9380917506909100
:101980007606A0917706B09178063091740623E030
:10199000230F2D3720F40196A11DB11D05C026E8A7
:1019A000230F0296A11DB11D209374068093750626
:1019B00090937606A0937706B09378068091790687
:1019C00090917A06A0917B06B0917C060196A11DAC
:1019D000B11D8093790690937A06A0937B06B0930D
:1019E0007C06BF91AF919F918F913F912F910F9066
:1019F0000FBE0F901F901895789484B5826084BDB7
:101A000084B5816084BD85B5826085BD85B5816002
:101A100085BDEEE6F0E0808181608083E1E8F0E062
:101A20001082808182608083808181608083E0E891
:101A3000F0E0808181608083E1EBF0E08081846070
:101A40008083E0EBF0E0808181608083EAE7F0E072
:101A500080818460808380818260808380818160D6
:101A600080838081806880831092C10008955058DF
:101A7000BB27AA270ED0CBC1BCD130F0C1D120F0FA
:101A800031F49F3F11F41EF48CC10EF4E095E7FB96
:101A900082C1E92FCDD180F3BA176207730784079B
:101AA000950718F071F49EF5E5C10EF4E0950B2E44
:101AB000BA2FA02D0B01B90190010C01CA01A001A0
:101AC0001124FF27591B99F0593F50F4503E68F1FB
:101AD0001A16F040A22F232F342F4427585FF3CF3C
:101AE000469537952795A795F0405395C9F77EF40D
:101AF0001F16BA0B620B730B840BBAF09150A1F056
:101B0000FF0FBB1F661F771F881FC2F70EC0BA0FDB
:101B1000621F731F841F48F4879577956795B79563
:101B2000F7959E3F08F0B3CF9395880F08F099275B
:101B3000EE0F9795879508950AD108F481E00895EE
:101B40000CD065C15DD140F054D130F021F45F3F3D
:101B500019F021C151118FC124C16AD198F3992381
:101B6000C9F35523B1F3951B550BBB27AA27621761
:101B70007307840738F09F5F5F4F220F331F441FA6
:101B8000AA1FA9F333D00E2E3AF0E0E830D09150DE
:101B90005040E695001CCAF729D0FE2F27D0660FCB
:101BA000771F881FBB1F261737074807AB07B0E80A
:101BB00009F0BB0B802DBF01FF2793585F4F2AF020
:101BC0009E3F510568F0E7C056C15F3FECF3983E79
:101BD000DCF3869577956795B795F7959F5FC9F77D
:101BE000880F911D9695879597F90895E1E0660F06
:101BF000771F881FBB1F621773078407BA0720F07F
:101C0000621B730B840BBA0BEE1F88F7E0950895E7
:101C100019F40EF0C0C02EC1C4C012D1C8F396385A
:101C2000C0F707F80F92E8942BE33AEA48EB5FE736
:101C3000AAD10F920F920F924DB75EB70F9262D159
:101C4000E8E6F0E0B1D04F915F91EF91FF91E5951B
:101C5000EE1FFF1F49F0FE57E0684427EE0F441FB8
:101C6000FA95E1F74195550B19D10F9007FE0DC17B
:101C7000089504D06894B111FEC00895E1D088F0B1
:101C80009F5790F0B92F9927B751A0F0D1F0660F68
:101C9000771F881F991F1AF0BA95C9F712C0B13083
:101CA00081F0E8D0B1E00895E5C0672F782F88274C
:101CB000B85F39F0B93FCCF3869577956795B395C2
:101CC000D9F73EF490958095709561957F4F8F4F31
:101CD0009F4F0895E89409C097FB3EF49095809536
:101CE000709561957F4F8F4F9F4F9923A9F0F92FE2
:101CF00096E9BB279395F695879577956795B79560
:101D0000F111F8CFFAF4BB0F11F460FF1BC06F5F45
:101D10007F4F8F4F9F4F16C0882311F096E911C057
:101D2000772321F09EE8872F762F05C0662371F078
:101D300096E8862F70E060E02AF09A95660F771F8C
:101D4000881FDAF7880F9695879597F90895990F68
:101D50000008550FAA0BE0E8FEEF16161706E80775
:101D6000F907C0F012161306E407F50798F0621B96
:101D7000730B840B950B39F40A2661F0232B242B6B
:101D8000252B21F408950A2609F4A140A6958FEF8A
:101D9000811D811D089597F99F6780E870E060E0DC
:101DA00008959FEF80EC0895DF93CF931F930F93D7
:101DB000FF92EF92DF927B018C01689405C0DA2ECE
:101DC000EF01DFD0FE01E894A59125913591459171
:101DD0005591AEF3EF015DDEFE019701A801DA94A3
:101DE00079F7DF90EF90FF900F911F91CF91DF91E6
:101DF000089500240A941616170618060906089571
:101E000000240A9412161306140605060895092ED6
:101E10000394000C11F4882352F0BB0F40F4BF2B45
:101E200011F460FF04C06F5F7F4F8F4F9F4F089585
:101E300057FD9058440F551F59F05F3F71F047957B
:101E4000880F97FB991F61F09F3F79F08795089560
:101E5000121613061406551FF2CF4695F1DF08C07F
:101E6000161617061806991FF1CF8695710561059C
:101E700008940895E894BB2766277727CB0197F944
:101E8000089565DF08F48FEF08959B01AC0160E0D1
:101E900070E080E89FE354CE7ECFCEC0D1DFE8F380
:101EA0009923D9F3940F511DBBF39150504094F0F6
:101EB00059F0882332F0660F771F881F91505040E9
:101EC000C1F79E3F510544F7880F911D9695879560
:101ED00097F908955F3FACF0983E9CF0BB2786953C
:101EE00077956795B79508F4B1609395C1F7BB0FE7
:101EF00058F711F460FFE8CF6F5F7F4F8F4F9F4F10
:101F0000E3CFB9CFFA01DC01AA0FBB1F9B01AC01E3
:101F1000BF5728F422273327442750781FC0B751D2
:101F200088F4AB2F0024469537952795011CA3957F
:101F3000D2F3002069F0220F331F441FB395DAF368
:101F40000DD095CD61307105A0E88A07B94630F40F
:101F50009B01AC016627772788279078309621F07F
:101F6000208331834283538308950BD050CF41DFC8
:101F700028F046DF18F0952309F00DCF12CF112479
:101F80007ACF56DFA0F3959FD1F3950F50E0551F00
:101F9000629FF001729FBB27F00DB11D639FAA27BE
:101FA000F00DB11DAA1F649F6627B00DA11D661F0D
:101FB000829F2227B00DA11D621F739FB00DA11D2E
:101FC000621F839FA00D611D221F749F3327A00DE8
:101FD000611D231F849F600D211D822F762F6A2F84
:101FE00011249F5750408AF0E1F088234AF0EE0F09
:101FF000FF1FBB1F661F771F881F91505040A9F716
:102000009E3F510570F0C7CE36CF5F3FECF3983E50
:10201000DCF3869577956795B795F795E7959F5F7C
:10202000C1F7FE2B880F911D9695879597F9089516
:102030008EDE880B990B08959F3F31F0915020F46C
:10204000879577956795B795880F911D9695879594
:1020500097F90895A1E21A2EAA1BBB1BFD010DC022
:10206000AA1FBB1FEE1FFF1FA217B307E407F50748
:1020700020F0A21BB30BE40BF50B661F771F881F24
:10208000991F1A9469F760957095809590959B01BA
:10209000AC01BD01CF010895052E97FB1EF40094FD
:1020A0000E94631057FD07D00E942A1007FC03D03E
:1020B0004EF40C94631050954095309521953F4F08
:1020C0004F4F5F4F089590958095709561957F4F24
:1020D0008F4F9F4F08950E947C10A59F900DB49F35
:1020E000900DA49F800D911D11240895EE0FFF1FE8
:1020F0000590F491E02D0994A29FB001B39FC00117
:10210000A39F700D811D1124911DB29F700D811D23
:102110001124911D08958F929F92AF92BF92CF92FA
:10212000DF92EF92FF92CF93DF93EC016881798188
:102130008A819B81611571058105910521F464E215
:1021400079ED8BE597E02DE133EF41E050E00E941F
:102150004C1049015A019B01AC01A7EAB1E40E946D
:102160006B106B017C01ACEEB4EFA50194010E94F1
:10217000EB10C60ED71EE81EF91EF7FE06C081E062
:10218000C81AD108E10880E8F80AC882D982EA8230
:10219000FB82C701B6019F77DF91CF91FF90EF904F
:1021A000DF90CF90BF90AF909F908F9008950E9446
:1021B0008B10089580E091E00E948B100895609349
:1021C000000170930101809302019093030108952F
:1021D000B7FF0C946B100E946B10821B930B089539
:0421E000F894FFCFA1
:1021E40001000000012020547261696E696E67204D
:1021F4005061747465726E3A20002020496E7075C7
:102204007420002020546172676574200020204FE0
:1022140075747075742000496E697469616C2F550A
:102224006E747261696E6564204F75747075747331
:102234003A2000547261696E696E674379636C6514
:102244003A200020204572726F72203D20005472A3
:1022540061696E696E672053657420536F6C76658F
:10226400642120002D2D2D2D2D2D2D2D000000005D
:102274000000000001000001000000010100010055
:102284000000010001000101000001010101000042
:102294000001000001010101010101000001010030
:1022A4000000000101000101000101010101000021
:1022B4000100010100000101010001010001010010
:1022C40000010101010101010100000000010101FF
:1022D40001010101010101000001016E616E00694B
:1022E4006E66006F7666002E0000000000120B7D03
:0A22F40008B80AE50ACA0A070B0041
:00000001FF
