:100000000C945F000C9487000C9487000C9487007C
:100010000C9487000C9487000C9487000C94870044
:100020000C9487000C9487000C9487000C94350185
:100030000C9487000C9487000C9487000C94870024
:100040000C940A040C9487000C9416060C94590620
:100050000C9487000C9487000C9487000C94870004
:100060000C9487000C948700000000070002010038
:100070000003040600000000000000000102040864
:100080001020408001020408102001020408102002
:10009000040404040404040402020202020203032E
:1000A0000303030300000000250028002B000000CC
:1000B0000000240027002A00D5001C072701112476
:1000C0001FBECFEFD8E0DEBFCDBF11E0A0E0B1E0B2
:1000D000E4E0F0E102C005900D92A032B107D9F73B
:1000E00022E0A0E2B1E001C01D92AF30B207E1F71B
:1000F00010E0CEE5D0E004C02197FE010E94EF079A
:10010000CC35D107C9F70E946F050C94F5070C9404
:10011000000040E855E260E070E081E691E00E9476
:10012000940661E086E00E94030561E087E00E949A
:10013000030561E086E00E943F0561E087E00C94E2
:100140003F0561E086E00E943F0561E087E00E9494
:100150003F0566E071E081E691E00E94AF0764E14F
:1001600075E08CE291E00E94A8026DEB76E08FE2F0
:1001700091E00E94A80260E177E280E090E00E94B6
:1001800079046BE071E081E691E00E94AF0760E0E6
:1001900086E00E943F0560E087E00E943F0560E145
:1001A00077E280E090E00C9479048CE291E00E9488
:1001B000F6018FE291E00E94F6016CE070E08CE2C3
:1001C00091E00E9494026DE070E08FE291E00E9465
:1001D000940210922501109224011092270110928E
:1001E0002601109229011092280110922B011092E1
:1001F0002A01109221011092200188E090E00E94D3
:10020000DD029093230180932201892BC9F461E0E0
:100210008DE00E94030561E08DE00E943F056AEFDA
:1002200070E080E090E00E94790460E08DE00E9440
:100230003F056AEF70E080E090E00E947904EBCF28
:1002400082E090E0909325018093240108958091AD
:100250002201909123010E9472038CE291E00E949E
:100260009A028FE291E00C949A021F920F920FB6BD
:100270000F9211242F933F934F935F936F937F932C
:100280008F939F93AF93BF93EF93FF93809133012D
:1002900087FF05C010928500109284001BC020913A
:1002A0003301022E000C330B8091320190E02817AD
:1002B000390784F480913301082E000C990BFC015E
:1002C000EE0FFF1F8E0F9F1FFC01EC5CFE4F808125
:1002D00086FD15C0809133018F5F8093330120919B
:1002E0003301022E000C330B8091320190E028176D
:1002F0003907C4F4809133018C3064F113C08091CC
:100300003301082E000C990BFC01EE0FFF1F8E0F1E
:100310009F1FFC01EC5CFE4F808160E08F730E94A8
:100320003F05D8CF80918400909185000496803459
:100330009C4918F480E49CE905C080918400909168
:100340008500049690938900809388008FEF8093B6
:1003500033013BC0209184003091850080913301AE
:10036000082E000C990BFC01EE0FFF1F8E0F9F1F34
:10037000FC01EC5CFE4F81819281820F931F909370
:1003800089008093880080913301082E000C990B1E
:10039000FC01EE0FFF1F8E0F9F1FFC01EC5CFE4F58
:1003A000808186FF12C080913301082E000C990BCA
:1003B000FC01EE0FFF1F8E0F9F1FFC01EC5CFE4F38
:1003C000808161E08F730E943F05FF91EF91BF91A3
:1003D000AF919F918F917F916F915F914F913F91DD
:1003E0002F910F900FBE0F901F901895FC019091C8
:1003F00032019C30A0F481E0890F80933201908318
:10040000892F90E0FC01EE0FFF1F8E0F9F1FFC0154
:10041000EC5CFE4F88EB9BE09283818308958FEF25
:1004200080830895DF92EF92FF920F931F93CF93F3
:10043000DF93EC01D62E7A01890188818C3008F097
:100440006AC061E08D2D0E9403058881E82FF0E0ED
:100450009F01220F331FE20FF31FEC5CFE4F9D2D17
:100460009F732081207CD22ED92AD08260E272E054
:10047000AB014E195F0957FF02C04D5F5F4F5595A5
:10048000479555954795498340E659E09A01201BC9
:10049000310B37FF02C02D5F3F4F359527953595BE
:1004A00027952A836CE00E94C1079CE0899FB001D8
:1004B000112440E050E09A01260F371FF901EE0F9A
:1004C000FF1F2E0F3F1FF901EC5CFE4F908196FD40
:1004D00016C04F5F5F4F4C30510569F781110FC057
:1004E0001092800082E0809381001092850010922B
:1004F0008400B19A80916F00826080936F00E881E0
:10050000F0E0CF01880F991FE80FF91FEC5CFE4F58
:100510008081806480838881DF91CF911F910F91CA
:10052000FF90EF90DF90089520E639E040E252E03E
:100530000C941202DC01EC91F0E0CF01880F991FBE
:10054000E80FF91FEC5CFE4F80818F7B808308955C
:10055000FC0190819C3080F5818128E830E0281BE7
:10056000310987FD3395220F331F220F331F621786
:1005700073077CF0828128E532E0281B310987FD72
:100580003395220F331F220F331F621773070CF4AA
:100590009B014FB7F894892F90E0FC01EE0FFF1FED
:1005A0008E0F9F1FFC01EC5CFE4F22503109220F81
:1005B000331F328321834FBF0895CF93DF9382305F
:1005C000910510F482E090E0E0910D02F0910E02AE
:1005D00020E030E0C0E0D0E0309711F1408151815F
:1005E00048175907C0F04817590761F48281938171
:1005F000209719F09B838A832BC090930E028093DF
:100600000D0226C02115310519F04217530718F4C1
:100610009A01BE01DF01EF010280F381E02DDCCF02
:100620002115310509F1281B390B2430310590F4CF
:1006300012968D919C9113976115710521F0FB0124
:100640009383828304C090930E0280930D02FD0178
:10065000329644C0FD01E20FF31F81939193225023
:1006600031092D933C933AC020910B0230910C023A
:10067000232B41F4209102013091030130930C02AD
:1006800020930B02209100013091010121153105C9
:1006900041F42DB73EB74091040150910501241B50
:1006A000350BE0910B02F0910C02E217F307A0F476
:1006B0002E1B3F0B2817390778F0AC014E5F5F4FB8
:1006C0002417350748F04E0F5F1F50930C024093DC
:1006D0000B028193919302C0E0E0F0E0CF01DF9143
:1006E000CF9108950F931F93CF93DF93009709F451
:1006F0008CC0FC0132971382128200910D0210917E
:100700000E020115110581F420813181820F931FA2
:1007100020910B0230910C022817390779F5F093DC
:100720000C02E0930B0271C0D80140E050E0AE171C
:10073000BF0750F412962D913C911397AD012115EE
:10074000310509F1D901F3CF9D01DA013383228309
:1007500060817181860F971F8217930769F4EC01FE
:1007600028813981260F371F2E5F3F4F3183208329
:100770008A819B8193838283452B29F4F0930E0217
:10078000E0930D0242C01396FC93EE931297ED0195
:10079000499159919E01240F351FE217F30771F417
:1007A00080819181840F951F029611969C938E9360
:1007B0008281938113969C938E931297E0E0F0E0F0
:1007C000D80112968D919C911397009719F0F8011A
:1007D0008C01F6CF8D919C9198012E5F3F4F820F37
:1007E000931F20910B0230910C022817390769F4EE
:1007F000309729F410920E0210920D0202C013825B
:10080000128210930C0200930B02DF91CF911F9183
:100810000F9108951F920F920FB60F9211242F93EC
:100820003F938F939F93AF93BF9380915901909182
:100830005A01A0915B01B0915C013091580123E015
:10084000230F2D3720F40196A11DB11D05C026E808
:10085000230F0296A11DB11D2093580180935901C9
:1008600090935A01A0935B01B0935C0180915D016C
:1008700090915E01A0915F01B09160010196A11D70
:10088000B11D80935D0190935E01A0935F01B093D1
:100890006001BF91AF919F918F913F912F910F90E8
:1008A0000FBE0F901F9018953FB7F89480915D018F
:1008B00090915E01A0915F01B091600126B5A89B67
:1008C00005C02F3F19F00196A11DB11D3FBFBA2FE2
:1008D000A92F982F8827820F911DA11DB11DBC0142
:1008E000CD0142E0660F771F881F991F4A95D1F707
:1008F0000895CF92DF92EF92FF92CF93DF936B0137
:100900007C010E945404EB01C114D104E104F10400
:1009100079F00E9454046C1B7D0B683E7340A0F379
:1009200081E0C81AD108E108F108C851DC4FECCFCA
:10093000DF91CF91FF90EF90DF90CF900895789462
:1009400084B5826084BD84B5816084BD85B58260D4
:1009500085BD85B5816085BDEEE6F0E08081816072
:100960008083E1E8F0E01082808182608083808172
:1009700081608083E0E8F0E0808181608083E1EB4A
:10098000F0E0808184608083E0EBF0E08081816032
:100990008083EAE7F0E080818460808380818260E8
:1009A00080838081816080838081806880831092D1
:1009B000C1000895833081F028F4813099F08230AD
:1009C000A1F008958630A9F08730B9F08430D1F4D1
:1009D000809180008F7D03C0809180008F7780930D
:1009E0008000089584B58F7702C084B58F7D84BD63
:1009F00008958091B0008F7703C08091B0008F7D03
:100A00008093B0000895CF93DF9390E0FC01E45809
:100A1000FF4F2491FC01E057FF4F8491882361F13F
:100A200090E0880F991FFC01E255FF4FC591D491CA
:100A3000FC01EC55FF4FA591B491611109C09FB71E
:100A4000F8948881209582238883EC912E230BC013
:100A5000623061F49FB7F8943881822F80958323A8
:100A60008883EC912E2B2C939FBF06C08FB7F894F0
:100A7000E8812E2B28838FBFDF91CF9108951F939C
:100A8000CF93DF93282F30E0F901E859FF4F84918D
:100A9000F901E458FF4FD491F901E057FF4FC49199
:100AA000CC23C9F0162F81110E94DA04EC2FF0E05C
:100AB000EE0FFF1FEC55FF4FA591B4918FB7F8943F
:100AC000111105C09C91ED2FE095E92302C0EC9136
:100AD000ED2BEC938FBFDF91CF911F9108950E9472
:100AE0009F040E948900C0E5D6E00E94A1002097E3
:100AF000E1F30E945006F9CFFC0124853585F90108
:100B0000E05CFF4F80819181329620813181821B90
:100B1000930B8F7399270895DC011C96ED91FC913E
:100B20001D97DF01A05CBF4F2D913C91119712964C
:100B30008D919C9111972817390739F08D919C91CF
:100B4000E80FF91F808190E008958FEF9FEF0895DF
:100B5000FC01A485B585FD01E05CFF4F208131815A
:100B60003296808191812817390779F080819181AF
:100B7000A80FB91F8C91208131812F5F3F4F2F73B8
:100B800033273183208390E008958FEF9FEF0895FE
:100B9000FC0181A1882329F0A489B5898C9186FF65
:100BA000FBCF11A208950F931F93CF93DF93FC0106
:100BB000A685B7858D01005C1F4FE801888199816A
:100BC00001968F739927AD014E5B5F4FEA01288133
:100BD000398182179307D1F3E80128813981A20F67
:100BE000B31F6C93A685B785A05CBF4F11969C93ED
:100BF0008E93A689B7892C9181E090E0078C02C082
:100C0000880F991F0A94E2F7822B8C9381E081A3CD
:100C10000488F589E02D80818064808381E090E004
:100C2000DF91CF911F910F91089508951F920F9218
:100C30000FB60F9211242F934F935F938F939F932F
:100C4000EF93FF938091C00082FD1CC02091C600ED
:100C5000809107029091080201968F739927409125
:100C6000090250910A028417950771F0E09107027A
:100C7000F0910802E953FE4F20839093080280937D
:100C8000070202C08091C600FF91EF919F918F9162
:100C90005F914F912F910F900FBE0F901F9018955D
:100CA00081E691E00E947C05892B11F00C941506D9
:100CB00008951F920F920FB60F9211242F933F9316
:100CC0008F939F93EF93FF932091C3013091C401C1
:100CD0008091C5019091C6012817390731F48091A0
:100CE000C1008F7D8093C10014C0E091C501F091D7
:100CF000C601ED57FE4F20818091C5019091C6013C
:100D000001968F7399279093C6018093C501209314
:100D1000C600FF91EF919F918F913F912F910F907E
:100D20000FBE0F901F901895CF92DF92EF92FF9217
:100D30000F931F93CF93DF93EC016A017B01411561
:100D4000514E6105710509F1EC89FD8981E090E062
:100D500008A002C0880F991F0A94E2F7808360E020
:100D600079E08DE390E0A70196010E94CD0789010B
:100D70009A010150110921093109369527951795D6
:100D80000795980101151041A8F0EC89FD891082A2
:100D900060E874E88EE190E0A70196010E94CD071B
:100DA000DA01C9010197A109B109B695A7959795EF
:100DB00087959C01E889F9893083EA89FB8920833A
:100DC00019A2EE89FF89408181E090E09C010C8CA2
:100DD00002C0220F331F0A94E2F7242B2083EE89EE
:100DE000FF8940819C010D8C02C0220F331F0A94A1
:100DF000E2F7242B2083EE89FF8940819C010E8C31
:100E000002C0220F331F0A94E2F7242B2083EE89BD
:100E1000FF8920810F8C02C0880F991F0A94E2F786
:100E2000809582238083DF91CF911F910F91FF9056
:100E3000EF90DF90CF900895E1E6F1E01382128207
:100E400088EE93E0A0E0B0E084839583A683B78327
:100E500084E191E09183808387EC91E0958784879A
:100E600083E891E09787868785EC90E0918B808B73
:100E700084EC90E0938B828B80EC90E0958B848B5C
:100E800081EC90E0978B868B82EC90E0918F808F45
:100E900086EC90E0938F828F84E0848F83E0858F4F
:100EA00087E0868F85E0878F81E080A30895CF92C9
:100EB000DF92EF92FF920F931F93CF93DF936C011A
:100EC000EB017B01E40EF51E00E010E0CE15DF051E
:100ED00061F06991D601ED91FC910190F081E02DD6
:100EE000C6010995080F191FF1CFC801DF91CF91F5
:100EF0001F910F91FF90EF90DF90CF9008956115B3
:100F0000710579F0FB0101900020E9F73197AF01FD
:100F1000461B570BDC01ED91FC910280F381E02D23
:100F2000099480E090E00895DC01ED91FC9101903E
:100F3000F081E02D09940F931F93CF93DF93EC0181
:100F40006DE00E9494078C016AE0CE010E94940734
:100F5000800F911FDF91CF911F910F9108950F93F3
:100F60001F93CF93DF93EC010E947F078C01CE018A
:100F70000E949B07800F911FDF91CF911F910F91CE
:100F80000895991B79E004C0991F961708F0961BE5
:100F9000881F7A95C9F780950895A1E21A2EAA1B99
:100FA000BB1BFD010DC0AA1FBB1FEE1FFF1FA21719
:100FB000B307E407F50720F0A21BB30BE40BF50B16
:100FC000661F771F881F991F1A9469F7609570959F
:100FD000809590959B01AC01BD01CF010895EE0F66
:100FE000FF1F0590F491E02D099410E0CEE5D0E0CC
:100FF00004C0FE010E94EF072196CF35D107C9F743
:04100000F894FFCF92
:1010040000000F02800046554C4C0053544F5000D2
:1010140000000000D30557077C05A8058C05C8050A
:00000001FF
