:100000000C945D000C9485000C9485000C94850084
:100010000C9485000C9485000C9485000C9485004C
:100020000C9485000C9485000C9485000C94BC0005
:100030000C9485000C9485000C9485000C9485002C
:100040000C944B020C9485000C9485000C94850054
:100050000C9485000C9485000C9485000C9485000C
:100060000C9485000C94850000000007000201003C
:100070000003040600000000000000000102040864
:100080001020408001020408102001020408102002
:10009000040404040404040402020202020203032E
:1000A0000303030300000000250028002B000000CC
:1000B0000000240027002A00B80011241FBECFEF43
:1000C000D8E0DEBFCDBF11E0A4E0B1E001C01D92D9
:1000D000A633B107E1F711E0A0E0B1E0E4EAF7E010
:1000E00002C005900D92A430B107D9F710E0CAEB19
:1000F000D0E004C02297FE010E94CC03C83BD10788
:10010000C9F70E94B1030C94D0030C9400006DE079
:1001100070E084E091E00E94120264E175E084E006
:1001200091E00E94180268EB7BE080E090E00E9482
:10013000B8026CED75E084E091E00E94180268EE70
:1001400073E080E090E00E94B80264EA76E084E028
:1001500091E00E94180268EB7BE080E090E00E9452
:10016000B8026CED75E084E091E00C9418020895FB
:1001700084E091E00C9478011F920F920FB60F92D9
:1001800011242F933F934F935F936F937F938F939C
:100190009F93AF93BF93EF93FF938091080187FFE5
:1001A00005C010928500109284001AC020910801A9
:1001B000332727FD30958091070190E028173907F4
:1001C0007CF480910801992787FD9095FC01EE0F42
:1001D000FF1FE80FF91FE75FFE4F808186FD15C006
:1001E000809108018F5F80930801209108013327D7
:1001F00027FD30958091070190E028173907BCF45E
:10020000809108018C305CF112C08091080199271F
:1002100087FD9095FC01EE0FFF1FE80FF91FE75FC8
:10022000FE4F808160E08F730E947B03D9CF809165
:10023000840090918500049680349C4918F480E4F1
:100240009CE905C08091840090918500049690936C
:100250008900809388008FEF8093080138C08091D7
:1002600084009091850020910801332727FD309567
:10027000F901EE0FFF1FE20FF31FE75FFE4F218131
:100280003281820F931F9093890080938800809120
:100290000801992787FD9095FC01EE0FFF1FE80FDD
:1002A000F91FE75FFE4F808186FF11C08091080132
:1002B000992787FD9095FC01EE0FFF1FE80FF91FAE
:1002C000E75FFE4F808161E08F730E947B03FF91A7
:1002D000EF91BF91AF919F918F917F916F915F91BE
:1002E0004F913F912F910F900FBE0F901F90189537
:1002F000209107012C30A0F431E0320F3093070138
:10030000FC012083822F90E0FC01EE0FFF1FE80F1D
:10031000F91FE75FFE4F88EB9BE09283818308958E
:100320002FEFFC0120830895DF92EF92FF920F934D
:100330001F93CF93DF93EC01D62E7A018901888138
:100340008C3008F066C061E08D2D0E9442038881E8
:10035000A82FB0E0FD01EE0FFF1FEA0FFB1FE75FC4
:10036000FE4F2D2D2F739081907C922B908360E215
:1003700072E06E197F0977FF02C06D5F7F4F759540
:10038000679575956795698340E659E0401B510B69
:1003900057FF02C04D5F5F4F55954795559547955F
:1003A0004A836CE00E94BE039CE0899FB001112447
:1003B00020E030E0A901460F571FFA01EE0FFF1FA2
:1003C000E40FF51FE75FFE4F908196FD16C02F5F8B
:1003D0003F4F2C30310571F781110FC01092800012
:1003E00082E0809381001092850010928400B19A7F
:1003F00080916F00826080936F00888190E0FC01A3
:10040000EE0FFF1FE80FF91FE75FFE4F808180644A
:1004100080838881DF91CF911F910F91FF90EF90A2
:10042000DF90089520E639E040E252E00C94940118
:10043000FC0180818C3070F5918128E830E0291B27
:10044000310997FD3395220F331F220F331F621797
:1004500073077CF0928128E532E0291B310997FD72
:100460003395220F331F220F331F621773070CF4CB
:100470009B014FB7F89490E0FC01EE0FFF1FE80FCF
:10048000F91FE75FFE4F22503109220F331F3283DD
:1004900021834FBF08951F920F920FB60F92112420
:1004A0002F933F938F939F93AF93BF9380912E0190
:1004B00090912F01A0913001B091310130912D0127
:1004C00023E0230F2D3720F40196A11DB11D05C097
:1004D00026E8230F0296A11DB11D20932D018093C4
:1004E0002E0190932F01A0933001B09331018091A0
:1004F000320190913301A0913401B0913501019600
:10050000A11DB11D8093320190933301A09334015A
:10051000B0933501BF91AF919F918F913F912F91F2
:100520000F900FBE0F901F9018953FB7F8948091D1
:10053000320190913301A0913401B091350126B57B
:10054000A89B05C02F3F19F00196A11DB11D3FBF0B
:100550006627782F892F9A2F620F711D811D911D9B
:1005600042E0660F771F881F991F4A95D1F70895BB
:10057000CF92DF92EF92FF92CF93DF936B017C01DA
:100580000E949502EB01C114D104E104F10479F059
:100590000E9495026C1B7D0B683E7340A0F381E0C6
:1005A000C81AD108E108F108C851DC4FECCFDF913F
:1005B000CF91FF90EF90DF90CF900895789484B51D
:1005C000826084BD84B5816084BD85B5826085BD4F
:1005D00085B5816085BDEEE6F0E080818160808335
:1005E000E1E8F0E010828081826080838081816018
:1005F0008083E0E8F0E0808181608083E1EBF0E0DF
:10060000808184608083E0EBF0E080818160808382
:10061000EAE7F0E08081846080838081826080836B
:100620008081816080838081806880831092C10096
:100630000895833081F028F4813099F08230A1F060
:1006400008958630A9F08730B9F08430D1F48091D4
:1006500080008F7D03C0809180008F778093800021
:10066000089584B58F7702C084B58F7D84BD0895C9
:100670008091B0008F7703C08091B0008F7D809310
:10068000B0000895CF93DF9390E0FC01E458FF4F52
:100690002491FC01E057FF4F8491882349F190E0B9
:1006A000880F991FFC01E255FF4FA591B4918C551D
:1006B0009F4FFC01C591D4919FB7611108C0F89478
:1006C0008C91209582238C93888182230AC062308A
:1006D00051F4F8948C91322F309583238C93888138
:1006E000822B888304C0F8948C91822B8C939FBFBB
:1006F000DF91CF9108950F931F93CF93DF931F92B4
:10070000CDB7DEB7282F30E0F901E859FF4F8491CB
:10071000F901E458FF4F1491F901E057FF4F04919C
:100720000023C9F0882321F069830E94190369819D
:10073000E02FF0E0EE0FFF1FEC55FF4FA591B491B5
:100740009FB7F8948C91611103C01095812301C06B
:10075000812B8C939FBF0F90DF91CF911F910F91B1
:1007600008950E94DE020E948700C0E0D0E00E944F
:10077000B7002097E1F30E940000F9CF991B79E0C0
:1007800004C0991F961708F0961B881F7A95C9F721
:1007900080950895EE0FFF1F0590F491E02D0994C8
:0407A000F894FFCFFB
:0407A4000100000050
:00000001FF
