:100000000C9463000C948B000C948B000C948B006C
:100010000C948B000C948B000C948B000C948B0034
:100020000C948B000C948B000C948B000C9481012D
:100030000C948B000C948B000C948B000C948B0014
:100040000C94A8030C948B000C94A4050C94E70565
:100050000C948B000C948B000C948B000C948B00F4
:100060000C948B000C948B00000000070002010030
:100070000003040600000000000000000102040864
:100080001020408001020408102001020408102002
:10009000040404040404040402020202020203032E
:1000A00003030303000000002300260029000000D2
:1000B0000000250028002B0000000000240027007D
:1000C0002A007901A30611241FBECFEFD8E0DEBFBE
:1000D000CDBF11E0A0E0B1E0E0E9F6E102C005909B
:1000E0000D92AA34B107D9F712E0AAE4B1E001C039
:1000F0001D92A133B107E1F710E0C6ECD0E004C0D7
:100100002297FE010E94420BC23CD107C9F70E9410
:10011000CC080C94460B0C9400006115710581F01D
:10012000DB010D900020E9F7AD0141505109461B5C
:10013000570BDC01ED91FC910280F381E02D0994D5
:1001400080E090E008956CE070E08DE491E00E9422
:10015000D7026DE070E08AE491E00E94D7026091DE
:100160000A0170910B018AE491E00E94DD02609126
:100170000801709109018DE491E00E94DD0240E8E0
:1001800055E260E070E087E891E00E94220661E0BD
:10019000809112010E94390360E0809110010C945B
:1001A000390360E0809112010E94720380ED97E0B4
:1001B0000E943B0461E0809112010E9472038FE073
:1001C00090E00E943B0460E0809112010E94720363
:1001D0008AE090E00E943B0420E432E44FE050E0EB
:1001E00061E0809110010E9481040E94DB0920E0FF
:1001F00034E244E759E40E94420960935401709349
:100200005501809356019093570120910C01309134
:100210000D0140910E0150910F010E94910A20E0C2
:1002200030E040E05FE30E94910A609350017093D8
:100230005101809352019093530120E030E048EC4B
:1002400051E40E948D0A181684F4609106017091A1
:1002500007018DE491E00E94DD026091040170913C
:1002600005018AE491E00E94DD0220E030E048ECE4
:1002700051E460915001709151018091520190912F
:1002800053010E943E09181684F060910A01709192
:100290000B018DE491E00E94DD02609108017091F4
:1002A00009018AE491E00E94DD0264E171E087E8DF
:1002B00091E00E948D004091500150915101609158
:1002C00052017091530122E030E087E891E00E94F2
:1002D000CA086EE171E087E891E00E948D0087E82E
:1002E00091E00E94280764E670E080E090E00C94C2
:1002F00015048DE491E00E943D028AE491E00C94A3
:100300003D021F920F920FB60F9211242F933F932D
:100310004F935F936F937F938F939F93AF93BF930D
:10032000EF93FF938091590187FF05C010928500DC
:10033000109284001AC020915901332727FD30956F
:100340008091580190E0281739077CF48091590179
:10035000992787FD9095FC01EE0FFF1FE80FF91F0D
:10036000E65AFE4F808186FD15C0809159018F5F4E
:100370008093590120915901332727FD30958091B1
:10038000580190E028173907BCF4809159018C304E
:100390005CF112C080915901992787FD9095FC016D
:1003A000EE0FFF1FE80FF91FE65AFE4F808160E055
:1003B0008F730E947203D9CF809184009091850041
:1003C000049680349C4918F480E49CE905C080912F
:1003D0008400909185000496909389008093880012
:1003E0008FEF8093590138C08091840090918500EF
:1003F00020915901332727FD3095F901EE0FFF1F9A
:10040000E20FF31FE65AFE4F21813281820F931FC4
:10041000909389008093880080915901992787FDE6
:100420009095FC01EE0FFF1FE80FF91FE65AFE4FF3
:10043000808186FF11C080915901992787FD909591
:10044000FC01EE0FFF1FE80FF91FE65AFE4F8081F7
:1004500061E08F730E947203FF91EF91BF91AF91A2
:100460009F918F917F916F915F914F913F912F91CC
:100470000F900FBE0F901F901895209158012C30AF
:10048000A0F431E0320F30935801FC012083822F19
:1004900090E0FC01EE0FFF1FE80FF91FE65AFE4F38
:1004A00088EB9BE09283818308952FEFFC012083EA
:1004B0000895DF92EF92FF920F931F93CF93DF93F4
:1004C000EC01D62E7A01890188818C3008F066C053
:1004D00061E08D2D0E9439038881A82FB0E0FD01D5
:1004E000EE0FFF1FEA0FFB1FE65AFE4F2D2D2F7355
:1004F0009081907C922B908360E272E06E197F096C
:1005000077FF02C06D5F7F4F75956795759567950D
:10051000698340E659E0401B510B57FF02C04D5F15
:100520005F4F55954795559547954A836CE00E94D6
:10053000030B9CE0899FB001112420E030E0A90169
:10054000460F571FFA01EE0FFF1FE40FF51FE65A83
:10055000FE4F908196FD16C02F5F3F4F2C30310526
:1005600071F781110FC01092800082E080938100AA
:100570001092850010928400B19A80916F00826081
:1005800080936F00888190E0FC01EE0FFF1FE80F61
:10059000F91FE65AFE4F8081806480838881DF9155
:1005A000CF911F910F91FF90EF90DF90089520E67B
:1005B00039E040E252E00C945902FC0180818C3019
:1005C00070F5918128E830E0291B310997FD3395BA
:1005D000220F331F220F331F621773077CF09281A3
:1005E00028E532E0291B310997FD3395220F331F8F
:1005F000220F331F621773070CF49B014FB7F89457
:1006000090E0FC01EE0FFF1FE80FF91FE65AFE4FC6
:1006100022503109220F331F328321834FBF0895A7
:10062000833081F028F4813099F08230A1F0089570
:100630008630A9F08730B9F08430D1F48091800001
:100640008F7D03C0809180008F7780938000089514
:1006500084B58F7702C084B58F7D84BD0895809165
:10066000B0008F7703C08091B0008F7D8093B00081
:100670000895CF93DF9390E0FC01E458FF4F24915D
:10068000FC01E057FF4F8491882349F190E0880FE7
:10069000991FFC01E854FF4FA591B49182559F4FDB
:1006A000FC01C591D4919FB7611108C0F8948C9159
:1006B000209582238C93888182230AC0623051F472
:1006C000F8948C91322F309583238C938881822BE0
:1006D000888304C0F8948C91822B8C939FBFDF9108
:1006E000CF9108950F931F93CF93DF931F92CDB7B0
:1006F000DEB7282F30E0F901E859FF4F8491F90166
:10070000E458FF4F1491F901E057FF4F0491002383
:10071000C9F0882321F069830E9410036981E02FCA
:10072000F0E0EE0FFF1FE255FF4FA591B4919FB788
:10073000F8948C91611103C01095812301C0812B25
:100740008C939FBF0F90DF91CF911F910F910895D0
:100750001F920F920FB60F9211242F933F938F93F6
:100760009F93AF93BF9380917F0190918001A0915F
:100770008101B091820130917E0123E0230F2D375A
:1007800020F40196A11DB11D05C026E8230F029695
:10079000A11DB11D20937E0180937F019093800164
:1007A000A0938101B0938201809183019091840193
:1007B000A0918501B09186010196A11DB11D809384
:1007C000830190938401A0938501B0938601BF912A
:1007D000AF919F918F913F912F910F900FBE0F90EE
:1007E0001F9018953FB7F8948091830190918401F0
:1007F000A0918501B091860126B5A89B05C02F3F29
:1008000019F00196A11DB11D3FBF6627782F892FD2
:100810009A2F620F711D811D911D42E0660F771F97
:10082000881F991F4A95D1F70895CF92DF92EF92D2
:10083000FF92CF93DF936B017C010E94F203EB01E7
:10084000C114D104E104F10479F00E94F2036C1B9D
:100850007D0B683E7340A0F381E0C81AD108E1081F
:10086000F108C851DC4FECCFDF91CF91FF90EF90B2
:10087000DF90CF9008950197009739F0880F991F66
:10088000880F991F02970197F1F70895789484B51E
:10089000826084BD84B5816084BD85B5826085BD7C
:1008A00085B5816085BDEEE6F0E080818160808362
:1008B000E1E8F0E010828081826080838081816045
:1008C0008083E0E8F0E0808181608083E1EBF0E00C
:1008D000808184608083E0EBF0E0808181608083B0
:1008E000EAE7F0E080818460808380818260808399
:1008F0008081816080838081806880831092C100C4
:1009000008958F929F92AF92BF92CF92DF92EF9213
:10091000FF920F931F93CF93DF9390E0FC01E45875
:10092000FF4F0491FC01E057FF4F7491611102C029
:1009300010E001C0102FDA01C901BF70672F70E00D
:10094000660F771F6C557F4F812C912C5401FB0152
:10095000C591D491E881E023E11310C075016401D1
:100960002FEFC21AD20AE20AF20A88169906AA06DC
:10097000BB0609F441C046015701ECCFFB01C5910C
:10098000D491E881E023E11779F0750164012FEF3C
:10099000C21AD20AE20AF20A88169906AA06BB0609
:1009A00059F146015701EDCF88199909AA09BB09E8
:1009B00020E030E0A901FB01C591D491688160235A
:1009C00061130AC0281739074A075B07A9F02F5F90
:1009D0003F4F4F4F5F4FF2CFA5E1B0E00E94F80AC2
:1009E000605F7F4F8F4F9F4F24E096958795779557
:1009F00067952A95D1F703C060E070E0CB01DF91E5
:100A0000CF911F910F91FF90EF90DF90CF90BF900B
:100A1000AF909F908F900895FC0124853585F90152
:100A2000E05CFF4F80819181F901EE5BFF4F2081F7
:100A30003181821B930B8F7399270895FC01848564
:100A40009585FC01E05CFF4F40815181FC01EE5B2C
:100A5000FF4F208131814217530741F00190F0810F
:100A6000E02DE80FF91F808190E008958FEF9FEF50
:100A70000895FC0184859585FC01E05CFF4F408171
:100A80005181FC01EE5BFF4F2081318142175307FA
:100A900079F0A081B181A80FB91F8C91208131819B
:100AA0002F5F3F4F2F7333273183208390E00895CA
:100AB0008FEF9FEF0895FC0181A1882329F0A4897D
:100AC000B5898C9186FFFBCF11A20895CF93DF9358
:100AD000FC0126853785D901A05CBF4F8D919C9183
:100AE000119701968F739927E901CE5BDF4F4881FB
:100AF000598184179507D9F30D90BC91A02DA20FB1
:100B0000B31F6C93A685B785A05CBF4F11969C93CD
:100B10008E93A689B7892C9181E090E0078C02C062
:100B2000880F991F0A94E2F7282B2C9381E081A368
:100B30000488F589E02D80818064808381E090E0E5
:100B4000DF91CF91089508951F920F920FB60F92E3
:100B500011242F933F934F938F939F93EF93FF9382
:100B60008091C00082FD1CC04091C60080912D0282
:100B700090912E0201968F73992720912F02309128
:100B800030028217930771F0E0912D02F0912E024E
:100B9000E351FE4F408390932E0280932D0202C0BA
:100BA0008091C600FF91EF919F918F914F913F915E
:100BB0002F910F900FBE0F901F90189587E891E02E
:100BC0000E940C05892B11F00C94A30508951F9227
:100BD0000F920FB60F9211242F933F938F939F93F1
:100BE000EF93FF932091E9013091EA018091EB01AD
:100BF0009091EC012817390731F48091C1008F7D65
:100C00008093C10014C0E091EB01F091EC01E75535
:100C1000FE4F20818091EB019091EC0101968F7342
:100C200099279093EC018093EB012093C600FF91EC
:100C3000EF919F918F913F912F910F900FBE0F9049
:100C40001F901895CF92DF92EF92FF92CF93DF9390
:100C5000EC016A017B01411581EE580761057105C0
:100C6000F9F0EC89FD8981E090E008A002C0880FCE
:100C7000991F0A94E2F7808360E079E08DE390E0C9
:100C8000A70196010E940F0B21503109410951091A
:100C90005695479537952795211580E1380798F0A7
:100CA000EC89FD89108260E874E88EE190E0A7018C
:100CB00096010E940F0B21503109410951095695A7
:100CC000479537952795E889F9893083EA89FB8923
:100CD000208319A2EE89FF89408181E090E09C0188
:100CE0000C8C02C0220F331F0A94E2F7422B408380
:100CF000EE89FF8940819C010D8C02C0220F331FB9
:100D00000A94E2F7422B4083EE89FF8940819C01DF
:100D10000E8C02C0220F331F0A94E2F7422B40834D
:100D2000EE89FF8920810F8C02C0880F991F0A94D9
:100D3000E2F7809582238083DF91CF91FF90EF903F
:100D4000DF90CF90089510928A011092890188EE69
:100D500093E0A0E0B0E080938B0190938C01A0938E
:100D60008D01B0938E018FE291E090938801809382
:100D700087018DEE91E0909394018093930189EA2D
:100D800091E0909396018093950185EC90E090938B
:100D900098018093970184EC90E090939A0180935E
:100DA000990180EC90E090939C0180939B0181ECF1
:100DB00090E090939E0180939D0182EC90E090934F
:100DC000A00180939F0186EC90E09093A201809314
:100DD000A10184E08093A30183E08093A40187E0D4
:100DE0008093A50185E08093A60181E08093A7010F
:100DF0000895CF92DF92EF92FF920F931F93CF93BC
:100E0000DF936C017A01EB01E60EF71E00E010E0C3
:100E1000CE15DF0561F06991D601ED91FC9101904D
:100E2000F081E02DC6010995080F191FF1CFC80107
:100E3000DF91CF911F910F91FF90EF90DF90CF90B6
:100E40000895DC01ED91FC910190F081E02D099471
:100E50000F931F93CF93DF93EC016DE00E94210766
:100E60008C016AE0CE010E942107800F911FDF9163
:100E7000CF911F910F9108958F929F92AF92BF9241
:100E8000CF92DF92EF92FF920F931F93CF93DF9356
:100E9000CDB7DEB7A1970FB6F894DEBF0FBECDBFBA
:100EA0007C01C42EE52FCB01D22E19A221E02D15F5
:100EB00010F02AE0D22E8E010F5D1F4F8D2C912C49
:100EC000A12CB12C6C2D7E2FA50194010E940F0B3B
:100ED0008C2DD29E80191124015011098A3014F4EE
:100EE000805D01C0895CF8018083211531054105D1
:100EF000510521F0C22EE32FCA01E4CFB801C7018A
:100F00000E948D00A1960FB6F894DEBF0FBECDBF34
:100F1000DF91CF911F910F91FF90EF90DF90CF90D5
:100F2000BF90AF909F908F900895CF92DF92EF92F5
:100F3000FF920F931F93CF93DF93EC016A017B0124
:100F40002115310579F4E881F9810190F081E02DD6
:100F5000642FDF91CF911F910F91FF90EF90DF9061
:100F6000CF9009942A303105E9F477FF1AC06DE279
:100F70000E9421078C0144275527BA014C195D09AD
:100F80006E097F092AE0CE010E943C07800F911F65
:100F9000DF91CF911F910F91FF90EF90DF90CF9055
:100FA00008952AE0B701A601CE01DF91CF911F91EC
:100FB0000F91FF90EF90DF90CF900C943C074F92F1
:100FC0005F926F927F928F929F92AF92BF92CF92D9
:100FD000DF92EF92FF920F931F93CF93DF93EC0179
:100FE0006A017B01B22E9A01AB01C701B6010E94D2
:100FF000F40A882319F06BE371E027C0260137015A
:10100000E89477F82FEF3FEF4FE75FE7C301B201B6
:101010000E94F40A81110DC02FEF3FEF4FE75FE709
:10102000C301B2010E943E0918161CF46FE371E07F
:101030000CC02FEF3FEF4FE75FE4C701B6010E94FE
:101040008D0A1816ACF463E471E0CE01DF91CF9104
:101050001F910F91FF90EF90DF90CF90BF90AF90D6
:101060009F908F907F906F905F904F900C948D0029
:101070002FEF3FEF4FE75FECC701B6010E943E093B
:1010800087FDE1CF20E030E0A901C701B6010E9451
:101090003E0987FF0AC06DE2CE010E9421078C0144
:1010A000F7FAF094F7F8F09402C000E010E0A12CF9
:1010B00060E070E080E09FE3AB1441F020E030E0BE
:1010C00040E251E40E944209A394F6CF9B01AC0197
:1010D000C701B6010E94DA086B017C010E94AF09CA
:1010E0002B013C010E94DB099B01AC01C701B60149
:1010F0000E94D9086B017C012AE0B301A201CE0154
:101100000E943C07080F191FBB2039F067E471E00B
:10111000CE010E948D00080F191F7B2C772041F112
:1011200020E030E040E251E4C701B6010E94910A9C
:101130006B017C010E94AA094B01AA2497FCA09490
:10114000BA2C2AE030E0B501A401CE010E94950737
:10115000080F191FC501B4010E94DD099B01AC01F4
:10116000C701B6010E94D9086B017C017A94D6CFE1
:10117000C801DF91CF911F910F91FF90EF90DF9009
:10118000CF90BF90AF909F908F907F906F905F9027
:101190004F9008950C94DF070E9446040E94A3001C
:1011A000CEEDD5E00E94D1002097E1F30E94DE054C
:1011B000F9CF5058BB27AA270ED075C166D130F0A1
:1011C0006BD120F031F49F3F11F41EF45BC10EF49B
:1011D000E095E7FB51C1E92F77D180F3BA17620799
:1011E00073078407950718F071F49EF58FC10EF40C
:1011F000E0950B2EBA2FA02D0B01B90190010C0127
:10120000CA01A0011124FF27591B99F0593F50F43E
:10121000503E68F11A16F040A22F232F342F442796
:10122000585FF3CF469537952795A795F04053958E
:10123000C9F77EF41F16BA0B620B730B840BBAF05E
:101240009150A1F0FF0FBB1F661F771F881FC2F7C9
:101250000EC0BA0F621F731F841F48F487957795DD
:101260006795B795F7959E3F08F0B3CF9395880F94
:1012700008F09927EE0F979587950895D9D008F42F
:1012800081E008950CD00FC107D140F0FED030F0BE
:1012900021F45F3F19F0F0C0511139C1F3C014D1EE
:1012A00098F39923C9F35523B1F3951B550BBB272D
:1012B000AA2762177307840738F09F5F5F4F220FDA
:1012C000331F441FAA1FA9F333D00E2E3AF0E0E8D3
:1012D00030D091505040E695001CCAF729D0FE2F1F
:1012E00027D0660F771F881FBB1F261737074807B1
:1012F000AB07B0E809F0BB0B802DBF01FF27935867
:101300005F4F2AF09E3F510568F0B6C000C15F3FB5
:10131000ECF3983EDCF3869577956795B795F7954E
:101320009F5FC9F7880F911D9695879597F9089546
:10133000E1E0660F771F881FBB1F621773078407E2
:10134000BA0720F0621B730B840BBA0BEE1F88F7F1
:10135000E095089504D06894B111D9C00895BCD027
:1013600088F09F5790F0B92F9927B751A0F0D1F08E
:10137000660F771F881F991F1AF0BA95C9F712C018
:10138000B13081F0C3D0B1E00895C0C0672F782F8D
:101390008827B85F39F0B93FCCF386957795679584
:1013A000B395D9F73EF490958095709561957F4FF0
:1013B0008F4F9F4F0895E89409C097FB3EF4909596
:1013C0008095709561957F4F8F4F9F4F9923A9F01E
:1013D000F92F96E9BB279395F695879577956795AD
:1013E000B795F111F8CFFAF4BB0F11F460FF1BC0F1
:1013F0006F5F7F4F8F4F9F4F16C0882311F096E984
:1014000011C0772321F09EE8872F762F05C0662331
:1014100071F096E8862F70E060E02AF09A95660FEA
:10142000771F881FDAF7880F9695879597F90895A3
:10143000990F0008550FAA0BE0E8FEEF16161706E5
:10144000E807F907C0F012161306E407F50798F04D
:10145000621B730B840B950B39F40A2661F0232B66
:10146000242B252B21F408950A2609F4A140A695E2
:101470008FEF811D811D089597F99F6780E870E0C7
:1014800060E008959FEF80EC089500240A941616FA
:10149000170618060906089500240A941216130662
:1014A000140605060895092E0394000C11F48823F0
:1014B00052F0BB0F40F4BF2B11F460FF04C06F5F0C
:1014C0007F4F8F4F9F4F089557FD9058440F551FE2
:1014D00059F05F3F71F04795880F97FB991F61F0B6
:1014E0009F3F79F087950895121613061406551F2D
:1014F000F2CF4695F1DF08C0161617061806991F99
:10150000F1CF86957105610508940895E894BB278D
:1015100066277727CB0197F908958ADF08F48FEFC4
:1015200008950BD0C0CFB1DF28F0B6DF18F09523B7
:1015300009F0A2CFA7CF1124EACFC6DFA0F3959F71
:10154000D1F3950F50E0551F629FF001729FBB27AA
:10155000F00DB11D639FAA27F00DB11DAA1F649F56
:101560006627B00DA11D661F829F2227B00DA11D09
:10157000621F739FB00DA11D621F839FA00D611D8F
:10158000221F749F3327A00D611D231F849F600DB0
:10159000211D822F762F6A2F11249F5750408AF0E9
:1015A000E1F088234AF0EE0FFF1FBB1F661F771F75
:1015B000881F91505040A9F79E3F510570F05CCFB5
:1015C000A6CF5F3FECF3983EDCF386957795679561
:1015D000B795F795E7959F5FC1F7FE2B880F911D93
:1015E0009695879597F9089523DF880B990B0895B1
:1015F0000E94310BA59F900DB49F900DA49F800D6C
:10160000911D11240895991B79E004C0991F961724
:1016100008F0961B881F7A95C9F780950895A1E276
:101620001A2EAA1BBB1BFD010DC0AA1FBB1FEE1F5C
:10163000FF1FA217B307E407F50720F0A21BB30BA7
:10164000E40BF50B661F771F881F991F1A9469F723
:1016500060957095809590959B01AC01BD01CF017F
:101660000895A29FB001B39FC001A39F700D811D7B
:101670001124911DB29F700D811D1124911D08959B
:10168000EE0FFF1F0590F491E02D0994F894FFCF21
:1016900001000000A4061405F505EB0500FC054754
:1016A00007000600466F72776172643A200020637B
:1016B000656E74696D657465727300000000006684
:1016C00005F9060C0539051E055B056E616E00699E
:0A16D0006E66006F7666002E0000C3
:00000001FF
