:100000000C945E000C9486000C9486000C94860080
:100010000C9486000C9486000C9486000C94860048
:100020000C9486000C9486000C9486000C94A0001E
:100030000C9486000C9486000C9486000C94860028
:100040000C947C050C9486000C9413040C945604B8
:100050000C9486000C9486000C9486000C94860008
:100060000C9486000C94860000000007000201003A
:100070000003040600000000000000000102040864
:100080001020408001020408102001020408102002
:10009000040404040404040402020202020203032E
:1000A0000303030300000000250028002B000000CC
:1000B0000000240027002A009C00190511241FBEFF
:1000C000CFEFD8E0DEBFCDBF11E0A0E0B1E0E0E0CF
:1000D000FDE002C005900D92A031B107D9F721E0F3
:1000E000A0E1B1E001C01D92AC3EB207E1F710E023
:1000F000CEE5D0E004C02197FE010E946906CC3510
:10010000D107C9F70E942B030C947E060C940000C3
:1001100040E855E260E070E089E391E00E949104DC
:100120006DE070E080E191E00C94FF0160E670E02A
:1001300080E191E00C943A0280E191E00C9461013D
:100140001F920F920FB60F9211242F933F934F934C
:100150005F936F937F938F939F93AF93BF93EF932F
:10016000FF938091140187FF05C0109285001092C3
:1001700084001BC020911401022E000C330B8091CF
:10018000130190E02817390784F480911401082E98
:10019000000C990BFC01EE0FFF1F8E0F9F1FFC013F
:1001A000EB5EFE4F808186FD15C0809114018F5F4C
:1001B0008093140120911401022E000C330B8091C6
:1001C000130190E028173907C4F4809114018C3092
:1001D00064F113C080911401082E000C990BFC01EE
:1001E000EE0FFF1F8E0F9F1FFC01EB5EFE4F808105
:1001F00060E08F730E94FB02D8CF809184009091C1
:100200008500049680349C4918F480E49CE905C07C
:10021000809184009091850004969093890080934A
:1002200088008FEF809314013BC0209184003091AF
:10023000850080911401082E000C990BFC01EE0F33
:10024000FF1F8E0F9F1FFC01EB5EFE4F818192818D
:10025000820F931F909389008093880080911401EE
:10026000082E000C990BFC01EE0FFF1F8E0F9F1F35
:10027000FC01EB5EFE4F808186FF12C0809114016D
:10028000082E000C990BFC01EE0FFF1F8E0F9F1F15
:10029000FC01EB5EFE4F808161E08F730E94FB02E8
:1002A000FF91EF91BF91AF919F918F917F916F914E
:1002B0005F914F913F912F910F900FBE0F901F9024
:1002C0001895FC01909113019C30A0F481E0890FF6
:1002D000809313019083892F90E0FC01EE0FFF1FA4
:1002E0008E0F9F1FFC01EB5EFE4F88EB9BE092831D
:1002F000818308958FEF80830895DF92EF92FF92BC
:100300000F931F93CF93DF93EC01D62E7A018901CF
:1003100088818C3008F06AC061E08D2D0E94BF0298
:100320008881E82FF0E09F01220F331FE20FF31FB7
:10033000EB5EFE4F9D2D9F732081207CD22ED92A0B
:10034000D08260E272E0AB014E195F0957FF02C034
:100350004D5F5F4F5595479555954795498340E6C5
:1003600059E09A01201B310B37FF02C02D5F3F4F30
:1003700035952795359527952A836CE00E941106BF
:100380009CE0899FB001112440E050E09A01260FC3
:10039000371FF901EE0FFF1F2E0F3F1FF901EB5E14
:1003A000FE4F908196FD16C04F5F5F4F4C30510558
:1003B00069F781110FC01092800082E08093810064
:1003C0001092850010928400B19A80916F00826033
:1003D00080936F00E881F0E0CF01880F991FE80F4C
:1003E000F91FEB5EFE4F8081806480838881DF91FE
:1003F000CF911F910F91FF90EF90DF90089520E62D
:1004000039E040E252E00C947D01FC0190819C3087
:1004100080F5818128E830E0281B310987FD33957C
:10042000220F331F220F331F621773077CF0828164
:1004300028E532E0281B310987FD3395220F331F51
:10044000220F331F621773070CF49B014FB7F89408
:10045000892F90E0FC01EE0FFF1F8E0F9F1FFC0104
:10046000EB5EFE4F22503109220F331F328321836E
:100470004FBF0895AF92BF92CF92DF92EF92FF925B
:100480000F931F93CF93DF93EC01603282E07807E4
:100490000CF03FC077FD06C0653B71052CF064EBA6
:1004A00070E002C060E070E0898128E830E0590126
:1004B000A81AB10887FDB394AA0CBB1CAA0CBB1CDC
:1004C0000B2C000CCC08DD08072E000C880B990BB8
:1004D0002A8108E512E0021B110927FD1395000F80
:1004E000111F000F111F012E000C220B330B3F9325
:1004F0002F931F930F9314EBE12EF12C00E010E0EB
:1005000020E030E0A9010E9438030F900F900F9077
:100510000F90CE01DF91CF911F910F91FF90EF903F
:10052000DF90CF90BF90AF900C940502833081F0A4
:1005300028F4813099F08230A1F008958630A9F036
:100540008730B9F08430D1F4809180008F7D03C072
:10055000809180008F7780938000089584B58F7795
:1005600002C084B58F7D84BD08958091B0008F77DF
:1005700003C08091B0008F7D8093B0000895CF9329
:10058000DF9390E0FC01E458FF4F2491FC01E05719
:10059000FF4F8491882361F190E0880F991FFC013F
:1005A000E255FF4FC591D491FC01EC55FF4FA59149
:1005B000B491611109C09FB7F89488812095822376
:1005C0008883EC912E230BC0623061F49FB7F894BE
:1005D0003881822F809583238883EC912E2B2C9356
:1005E0009FBF06C08FB7F894E8812E2B28838FBF5A
:1005F000DF91CF9108951F93CF93DF93282F30E0A1
:10060000F901E859FF4F8491F901E458FF4FD49163
:10061000F901E057FF4FC491CC23C9F0162F811187
:100620000E949602EC2FF0E0EE0FFF1FEC55FF4FFB
:10063000A591B4918FB7F894111105C09C91ED2F3D
:10064000E095E92302C0EC91ED2BEC938FBFDF9195
:10065000CF911F9108950E94C6050E948800CDE4A5
:10066000D4E00E9496002097E1F30E944D04F9CF58
:100670004F925F926F927F92AF92BF92CF92DF9232
:10068000EF92FF920F931F93CF93DF93CDB7DEB717
:1006900029013A019B01AC01241935094609570982
:1006A00089899A89AB89BC89BC01CD016A197B090A
:1006B0008C099D090E940106A8019701241935099A
:1006C000460957090E943F06CA01B9016A0D7B1D00
:1006D0008C1D9D1DDF91CF911F910F91FF90EF9089
:1006E000DF90CF90BF90AF907F906F905F904F90D2
:1006F0000895FC0124853585F901E05CFF4F808178
:100700009181329620813181821B930B8F739927BF
:100710000895DC011C96ED91FC911D97DF01A05C12
:10072000BF4F2D913C91119712968D919C911197ED
:100730002817390739F08D919C91E80FF91F8081B6
:1007400090E008958FEF9FEF0895FC01A485B58593
:10075000FD01E05CFF4F20813181329680819181E3
:100760002817390779F080819181A80FB91F8C91E2
:10077000208131812F5F3F4F2F73332731832083B7
:1007800090E008958FEF9FEF0895FC0181A18823E9
:1007900029F0A489B5898C9186FFFBCF11A2089519
:1007A0000F931F93CF93DF93FC01A685B7858D012F
:1007B000005C1F4FE8018881998101968F7399270A
:1007C000AD014E5B5F4FEA012881398182179307A3
:1007D000D1F3E80128813981A20FB31F6C93A6855C
:1007E000B785A05CBF4F11969C938E93A689B7895D
:1007F0002C9181E090E0078C02C0880F991F0A9429
:10080000E2F7822B8C9381E081A30488F589E02DA7
:1008100080818064808381E090E0DF91CF911F919F
:100820000F91089508951F920F920FB60F92112401
:100830002F934F935F938F939F93EF93FF938091A9
:10084000C00082FD1CC02091C6008091DF01909104
:10085000E00101968F7399274091E1015091E201E7
:100860008417950771F0E091DF01F091E001E15606
:10087000FE4F20839093E0018093DF0102C08091BE
:10088000C600FF91EF919F918F915F914F912F91B2
:100890000F900FBE0F901F90189589E391E00E9472
:1008A0007903892B11F00C94120408951F920F9272
:1008B0000FB60F9211242F933F938F939F93EF9333
:1008C000FF9320919B0130919C0180919D0190911B
:1008D0009E012817390731F48091C1008F7D8093E4
:1008E000C10014C0E0919D01F0919E01E55AFE4FB8
:1008F000208180919D0190919E0101968F7399278F
:1009000090939E0180939D012093C600FF91EF91EB
:100910009F918F913F912F910F900FBE0F901F903D
:100920001895CF92DF92EF92FF920F931F93CF9380
:10093000DF93EC016A017B014115514E61057105A0
:1009400009F1EC89FD8981E090E008A002C0880FE0
:10095000991F0A94E2F7808360E079E08DE390E0EC
:10096000A70196010E941D0689019A0101501109F3
:100970002109310936952795179507959801011595
:100980001041A8F0EC89FD89108260E874E88EE1DE
:1009900090E0A70196010E941D06DA01C9010197A6
:1009A000A109B109B695A795979587959C01E88906
:1009B000F9893083EA89FB89208319A2EE89FF89AE
:1009C000408181E090E09C010C8C02C0220F331F1B
:1009D0000A94E2F7242B2083EE89FF8940819C0151
:1009E0000D8C02C0220F331F0A94E2F7242B2083C0
:1009F000EE89FF8940819C010E8C02C0220F331FBB
:100A00000A94E2F7242B2083EE89FF8920810F8C42
:100A100002C0880F991F0A94E2F780958223808391
:100A2000DF91CF911F910F91FF90EF90DF90CF90CA
:100A30000895E9E3F1E01382128288EE93E0A0E0EA
:100A4000B0E084839583A683B78384E091E09183AB
:100A500080838FE991E0958784878BE591E0978784
:100A6000868785EC90E0918B808B84EC90E0938B73
:100A7000828B80EC90E0958B848B81EC90E0978B5F
:100A8000868B82EC90E0918F808F86EC90E0938F44
:100A9000828F84E0848F83E0858F87E0868F85E076
:100AA000878F81E080A30895CF92DF92EF92FF922B
:100AB0000F931F93CF93DF936C01EB017B01E40E47
:100AC000F51E00E010E0CE15DF0561F06991D6015A
:100AD000ED91FC910190F081E02DC6010995080F80
:100AE000191FF1CFC801DF91CF911F910F91FF9096
:100AF000EF90DF90CF9008951F920F920FB60F9254
:100B000011242F933F938F939F93AF93BF93809123
:100B1000E4019091E501A091E601B091E7013091E7
:100B2000E30123E0230F2D3720F40196A11DB11D11
:100B300005C026E8230F0296A11DB11D2093E301F5
:100B40008093E4019093E501A093E601B093E7015F
:100B50008091E8019091E901A091EA01B091EB0147
:100B60000196A11DB11D8093E8019093E901A09326
:100B7000EA01B093EB01BF91AF919F918F913F91AB
:100B80002F910F900FBE0F901F901895789484B5F9
:100B9000826084BD84B5816084BD85B5826085BD79
:100BA00085B5816085BDEEE6F0E08081816080835F
:100BB000E1E8F0E010828081826080838081816042
:100BC0008083E0E8F0E0808181608083E1EBF0E009
:100BD000808184608083E0EBF0E0808181608083AD
:100BE000EAE7F0E080818460808380818260808396
:100BF0008081816080838081806880831092C100C1
:100C00000895DB018F939F930E945E06BF91AF9181
:100C1000A29F800D911DA39F900DB29F900D112456
:100C20000895991B79E004C0991F961708F0961B48
:100C3000881F7A95C9F780950895A1E21A2EAA1BFC
:100C4000BB1BFD010DC0AA1FBB1FEE1FFF1FA2177C
:100C5000B307E407F50720F0A21BB30BE40BF50B79
:100C6000661F771F881F991F1A9469F76095709502
:100C7000809590959B01AC01BD01CF010895052E93
:100C800097FB1EF400940E94560657FD07D00E9461
:100C90001D0607FC03D04EF40C9456065095409563
:100CA000309521953F4F4F4F5F4F08959095809518
:100CB000709561957F4F8F4F9F4F08950E946F06EB
:100CC000A59F900DB49F900DA49F800D911D1124A0
:100CD0000895EE0FFF1F0590F491E02D0994A29F57
:100CE000B001B39FC001A39F700D811D1124911D00
:100CF000B29F700D811D1124911D0895F894FFCFAE
:100D000000000000D00354057903A5038903C5033F
:00000001FF
