:100000000C9464000C948C000C948C000C948C0068
:100010000C948C000C948C000C948C000C948C0030
:100020000C948C000C948C000C948C000C94AE03FB
:100030000C948C000C948C000C948C000C948C0010
:100040000C94FC060C948C000C94F8080C943B095E
:100050000C948C000C948C000C948C000C948C00F0
:100060000C948C000C948C0000000007000201002E
:100070000003040600000000000000000102040864
:100080001020408001020408102001020408102002
:10009000040404040404040402020202020203032E
:1000A00003030303000000002300260029000000D2
:1000B0000000250028002B0000000000240027007D
:1000C0002A009701F709C60111241FBECFEFD8E01F
:1000D000DEBFCDBF11E0A0E0B1E0E4E8FFE102C087
:1000E00005900D92A43EB107D9F722E0A4EEB1E04D
:1000F00001C01D92AB3DB207E1F710E0C3E6D0E0CE
:1001000004C02197FE010E943C0FC136D107C9F7F8
:100110000E94480C0C94B50F0C94000061E08DE037
:100120000E948D0661E08DE00E94C6066AEF70E0D5
:1001300080E090E00E94690760E08DE00E94C606C2
:100140006AEF70E080E090E00E946907EBCF0097D3
:1001500011F00E94A60A0E948E006CE070E083EF0E
:1001600091E00E9404056DE070E080EF91E00E9454
:100170000405609108017091090180EF91E00E94EF
:100180000A0560910A0170910B0183EF91E00E94D2
:100190000A0568EE73E080E090E00E9469076091D4
:1001A00004017091050180EF91E00E940A056091C1
:1001B00006017091070183EF91E00E940A056CED42
:1001C00075E080E090E00E94690740E855E260E059
:1001D00070E08DE292E00E94760961E08091120168
:1001E0000E948D0660E0809110010C948D068F9224
:1001F0009F92AF92BF92CF92DF92EF92FF920F93B6
:100200001F93CF93DF93EC018B01161617061CF09A
:100210006AE171E012C0CB01880F991F880F991F06
:100220000E943D057C01009731F0AE80BF806C01DB
:1002300020E030E006C06FE471E0888199810E947F
:10024000A7008A809B802A153B05E4F48885998560
:10025000820F931F6C817D810E94C80EFC01EE0FFE
:10026000FF1FEE0FFF1FE80DF91D80819181A28114
:10027000B381F60181939193A193B1936F012F5FA5
:100280003F4FDFCFC4010E94D505FB82EA82198669
:1002900018868E819F819B878A871D830C83DF91BF
:1002A000CF911F910F91FF90EF90DF90CF90BF9073
:1002B000AF909F908F900895CF92DF92EF92FF9230
:1002C000CF93DF93EC016A017B016E817F818C818A
:1002D0009D816817790729F4660F771FCE010E9468
:1002E000F700EA81FB818A859B859C012F5F3F4F48
:1002F0003B872A87880F991F880F991FE80FF91FDE
:10030000C082D182E282F3828C819D8128173907D5
:1003100011F41B861A868E819F8101969F838E839E
:10032000DF91CF91FF90EF90DF90CF90089583EF12
:1003300091E00E946A0480EF91E00E946A041092AA
:10034000E9011092E8011092EB011092EA0110927B
:10035000ED011092EC011092EF011092EE0110925B
:10036000E5011092E40188E090E00E943D05909341
:10037000E7018093E601892B11F40E948E0082E050
:1003800090E09093E9018093E80108958091E6015F
:100390009091E7010C94D505CF92DF92EF92FF92F6
:1003A00020910C0130910D0140910E0150910F01EF
:1003B0000E944A0E20E034E244EF59E40E94EB0C24
:1003C0006B017C0122E030E0AB01BC018DE292E0E8
:1003D0000E94460C4CE050E069E871E08DE292E04A
:1003E0000E944D0A8DE292E00E94920AC701B60176
:1003F000FF90EF90DF90CF900895CF92DF92EF9231
:10040000FF926B017C0162E070E080E090E00E946E
:10041000550C613071058105910569F46091060103
:100420007091070183EF91E00E940A056091060137
:10043000709107010CC0609104017091050183EF78
:1004400091E00E940A05609104017091050180EF1E
:1004500091E00E940A0560910A0170910B0183EFFF
:1004600091E00E940A0520E432E44FE050E061E0B0
:10047000809110010E94D5070E94930D0E94CC012B
:10048000A70196010E94E60C18166CF06091040119
:100490007091050183EF91E00E940A0560910401CB
:1004A000709105010CC0609106017091070183EF06
:1004B00091E00E940A05609106017091070180EFAA
:1004C00091E00E940A05609106017091070183EF97
:1004D00091E00E940A05609104017091050180EF8E
:1004E00091E0FF90EF90DF90CF900C940A05CF92AF
:1004F000DF92EF92FF92CF93DF9300D000D0CDB781
:10050000DEB760E0809112010E94C60688EC90E0A0
:100510000E948F0761E0809112010E94C6068FE061
:1005200090E00E948F0760E0809112010E94C60651
:100530008AE090E00E948F076091060170910701A8
:1005400083EF91E00E940A0560910401709105011A
:1005500080EF91E00E940A0520E432E44FE050E091
:1005600061E0809110010E94D5070E94930D0E94C6
:10057000CC016B017C016093FA017093FB018093C5
:10058000FC019093FD019B01AC016091F60170911B
:10059000F7018091F8019091F9010E947A0C609323
:1005A000F6017093F7018093F8019093F90180911F
:1005B000EA019091EB01B701A6010A972CF484EEB1
:1005C00091E00E945C0159C084EE91E00E945C01C0
:1005D0008091EA019091EB01009741F466E971E0A6
:1005E0008091E4019091E5010E94A700E091E6016D
:1005F000F091E7012091EC013091ED01D9011196C4
:10060000B093ED01A093EC01220F331F220F331F93
:10061000E20FF31F20813181428153810197909332
:10062000EB018093EA016091E8017091E901A6175E
:10063000B70721F41092ED011092EC01009759F0E8
:10064000FB0177FD3396F595E795F595E795E81766
:10065000F9070CF070C06091F6017091F70180917C
:10066000F8019091F9010E94790C6093F601709362
:10067000F7018093F8019093F9016091EA0170917C
:10068000EB01072E000C880B990B0E94950D9B0126
:10069000AC016091F6017091F7018091F8019091A1
:1006A000F9010E94EB0C20E030E04CE052E40E94A3
:1006B000E60C181634F160910A0170910B0183EF7A
:1006C00091E00E940A05609108017091090180EF94
:1006D00091E00E940A0564EF71E080E090E00E94E2
:1006E000690760E070E088EC91E40F900F900F9044
:1006F0000F90DF91CF91FF90EF90DF90CF900C940F
:10070000FD01609106017091070183EF91E00E9465
:100710000A05609104017091050180EF91E00F904E
:100720000F900F900F90DF91CF91FF90EF90DF909F
:10073000CF900C940A0577FF02C06F5F7F4F7595CD
:10074000679584EE91E029833A834B835C830E9412
:10075000F70029813A814B815C817DCF1F920F92F6
:100760000FB60F9211242F933F934F935F936F9384
:100770007F938F939F93AF93BF93EF93FF9380915A
:10078000FF0187FF05C010928500109284001AC0F7
:100790002091FF01332727FD30958091FE0190E0E5
:1007A000281739077CF48091FF01992787FD9095E0
:1007B000FC01EE0FFF1FE80FF91FE050FE4F808194
:1007C00086FD15C08091FF018F5F8093FF0120910E
:1007D000FF01332727FD30958091FE0190E0281717
:1007E0003907BCF48091FF018C305CF112C080911C
:1007F000FF01992787FD9095FC01EE0FFF1FE80F81
:10080000F91FE050FE4F808160E08F730E94C606A2
:10081000D9CF8091840090918500049680349C49C2
:1008200018F480E49CE905C08091840090918500D3
:10083000049690938900809388008FEF8093FF0146
:1008400038C080918400909185002091FF0133276A
:1008500027FD3095F901EE0FFF1FE20FF31FE05067
:10086000FE4F21813281820F931F909389008093E4
:1008700088008091FF01992787FD9095FC01EE0F7C
:10088000FF1FE80FF91FE050FE4F808186FF11C067
:100890008091FF01992787FD9095FC01EE0FFF1FC6
:1008A000E80FF91FE050FE4F808161E08F730E94D6
:1008B000C606FF91EF91BF91AF919F918F917F916C
:1008C0006F915F914F913F912F910F900FBE0F90BD
:1008D0001F9018952091FE012C30A0F431E0320FCA
:1008E0003093FE01FC012083822F90E0FC01EE0F8B
:1008F000FF1FE80FF91FE050FE4F88EB9BE092834B
:10090000818308952FEFFC0120830895DF92EF92F9
:10091000FF920F931F93CF93DF93EC01D62E7A01B2
:10092000890188818C3008F066C061E08D2D0E94BD
:100930008D068881A82FB0E0FD01EE0FFF1FEA0FA2
:10094000FB1FE050FE4F2D2D2F739081907C922B3A
:10095000908360E272E06E197F0977FF02C06D5FDD
:100960007F4F7595679575956795698340E659E062
:10097000401B510B57FF02C04D5F5F4F5595479588
:10098000559547954A836CE00E94BC0E9CE0899F78
:10099000B001112420E030E0A901460F571FFA01F1
:1009A000EE0FFF1FE40FF51FE050FE4F908196FD04
:1009B00016C02F5F3F4F2C30310571F781110FC0EA
:1009C0001092800082E08093810010928500109246
:1009D0008400B19A80916F00826080936F0088815B
:1009E00090E0FC01EE0FFF1FE80FF91FE050FE4FF3
:1009F0008081806480838881DF91CF911F910F91E6
:100A0000FF90EF90DF90089520E639E040E252E059
:100A10000C948604FC0180818C3070F5918128E86B
:100A200030E0291B310997FD3395220F331F220F28
:100A3000331F621773077CF0928128E532E0291B8F
:100A4000310997FD3395220F331F220F331F621791
:100A500073070CF49B014FB7F89490E0FC01EE0F84
:100A6000FF1FE80FF91FE050FE4F22503109220FFF
:100A7000331F328321834FBF0895CF93DF9382309A
:100A8000910510F482E090E0E091D902F091DA0251
:100A900020E030E0A0E0B0E0309739F140815181B2
:100AA00048175907B8F04817590771F482819381A4
:100AB000109729F013969C938E9312972CC09093C5
:100AC000DA028093D90227C02115310531F042178F
:100AD000530718F0A901DB0101C0EF019A01BD0124
:100AE000DF010280F381E02DD7CF21153105F9F028
:100AF000281B390B2430310580F48A819B816115D4
:100B0000710521F0FB019383828304C09093DA0284
:100B10008093D902FE01329644C0FE01E20FF31F1A
:100B20008193919322503109398328833AC02091CF
:100B3000D7023091D802232B41F420911601309135
:100B400017013093D8022093D702209114013091DD
:100B500015012115310541F42DB73EB7409118011B
:100B600050911901241B350BE091D702F091D80266
:100B7000E217F307A0F42E1B3F0B2817390778F074
:100B8000AC014E5F5F4F2417350748F04E0F5F1FD3
:100B90005093D8024093D7028193919302C0E0E032
:100BA000F0E0CF01DF91CF910895CF93DF930097CD
:100BB00009F487C0FC01329713821282C091D902D6
:100BC000D091DA02209781F420813181280F391FDA
:100BD0008091D7029091D8028217930779F5F0930C
:100BE000D802E093D7026DC0DE0120E030E0AE17FE
:100BF000BF0750F412964D915C9113979D014115DA
:100C0000510509F1DA01F3CFB383A2834081518109
:100C1000840F951F8A179B0771F48D919C911197F2
:100C2000840F951F02969183808312968D919C91DB
:100C30001397938382832115310529F4F093DA0207
:100C4000E093D9023EC0D9011396FC93EE9312971C
:100C50004D915D91A40FB51FEA17FB0779F48081D0
:100C60009181840F951F0296D90111969C938E93C2
:100C70008281938113969C938E931297E0E0F0E02B
:100C80008A819B81009719F0FE01EC01F9CFCE011A
:100C9000029628813981820F931F2091D7023091CB
:100CA000D8022817390769F4309729F41092DA022C
:100CB0001092D90202C013821282D093D802C0933C
:100CC000D702DF91CF910895833081F028F48130ED
:100CD00099F08230A1F008958630A9F08730B9F0FC
:100CE0008430D1F4809180008F7D03C0809180009A
:100CF0008F7780938000089584B58F7702C084B584
:100D00008F7D84BD08958091B0008F7703C080915E
:100D1000B0008F7D8093B0000895CF93DF9390E073
:100D2000FC01E458FF4F2491FC01E057FF4F8491F0
:100D3000882349F190E0880F991FFC01E854FF4F88
:100D4000A591B49182559F4FFC01C591D4919FB755
:100D5000611108C0F8948C91209582238C9388812E
:100D600082230AC0623051F4F8948C91322F30956E
:100D700083238C938881822B888304C0F8948C9180
:100D8000822B8C939FBFDF91CF9108950F931F9378
:100D9000CF93DF931F92CDB7DEB7282F30E0F90154
:100DA000E859FF4F8491F901E458FF4F1491F9017C
:100DB000E057FF4F04910023C9F0882321F0698395
:100DC0000E9464066981E02FF0E0EE0FFF1FE255FC
:100DD000FF4FA591B4919FB7F8948C91611103C016
:100DE0001095812301C0812B8C939FBF0F90DF91C1
:100DF000CF911F910F9108951F920F920FB60F92EE
:100E000011242F933F938F939F93AF93BF93809120
:100E1000250290912602A0912702B09128023091DC
:100E2000240223E0230F2D3720F40196A11DB11DCC
:100E300005C026E8230F0296A11DB11D20932402B0
:100E40008093250290932602A0932702B093280254
:100E50008091290290912A02A0912B02B0912C023C
:100E60000196A11DB11D8093290290932A02A0939F
:100E70002B02B0932C02BF91AF919F918F913F9124
:100E80002F910F900FBE0F901F9018953FB7F894B9
:100E90008091290290912A02A0912B02B0912C02FC
:100EA00026B5A89B05C02F3F19F00196A11DB11DC5
:100EB0003FBF6627782F892F9A2F620F711D811DE2
:100EC000911D42E0660F771F881F991F4A95D1F741
:100ED0000895CF92DF92EF92FF92CF93DF936B0151
:100EE0007C010E944607EB01C114D104E104F10426
:100EF00079F00E9446076C1B7D0B683E7340A0F39F
:100F000081E0C81AD108E108F108C851DC4FECCFE4
:100F1000DF91CF91FF90EF90DF90CF9008950197F0
:100F2000009739F0880F991F880F991F0297019732
:100F3000F1F70895789484B5826084BD84B58160AA
:100F400084BD85B5826085BD85B5816085BDEEE6D1
:100F5000F0E0808181608083E1E8F0E010828081B0
:100F600082608083808181608083E0E8F0E080811E
:100F700081608083E1EBF0E0808184608083E0EB3E
:100F8000F0E0808181608083EAE7F0E08081846026
:100F90008083808182608083808181608083808182
:100FA000806880831092C10008958F929F92AF92C3
:100FB000BF92CF92DF92EF92FF920F931F93CF9346
:100FC000DF9390E0FC01E458FF4F0491FC01E057EF
:100FD000FF4F7491611102C010E001C0102FDA01BF
:100FE000C901BF70672F70E0660F771F6C557F4F88
:100FF000812C912C5401FB01C591D491E881E0230F
:10100000E11310C0750164012FEFC21AD20AE20A7F
:10101000F20A88169906AA06BB0609F441C04601E1
:101020005701ECCFFB01C591D491E881E023E11792
:1010300079F0750164012FEFC21AD20AE20AF20AAE
:1010400088169906AA06BB0659F146015701EDCF4D
:1010500088199909AA09BB0920E030E0A901FB0120
:10106000C591D4916881602361130AC0281739079C
:101070004A075B07A9F02F5F3F4F4F4F5F4FF2CFFB
:10108000A5E1B0E00E941D0F605F7F4F8F4F9F4F23
:1010900024E096958795779567952A95D1F703C0B3
:1010A00060E070E0CB01DF91CF911F910F91FF9035
:1010B000EF90DF90CF90BF90AF909F908F9008956A
:1010C000FC0124853585F901E05CFF4F8081918129
:1010D000F901EE5BFF4F20813181821B930B8F73EF
:1010E00099270895FC0184859585FC01E05CFF4FFC
:1010F00040815181FC01EE5BFF4F2081318142171D
:10110000530741F00190F081E02DE80FF91F808135
:1011100090E008958FEF9FEF0895FC0184859585F9
:10112000FC01E05CFF4F40815181FC01EE5BFF4F11
:10113000208131814217530779F0A081B181A80F36
:10114000B91F8C91208131812F5F3F4F2F7333273F
:101150003183208390E008958FEF9FEF0895FC0185
:1011600081A1882329F0A489B5898C9186FFFBCFC2
:1011700011A20895CF93DF93FC0126853785D9010D
:10118000A05CBF4F8D919C91119701968F73992709
:10119000E901CE5BDF4F4881598184179507D9F368
:1011A0000D90BC91A02DA20FB31F6C93A685B7859F
:1011B000A05CBF4F11969C938E93A689B7892C9102
:1011C00081E090E0078C02C0880F991F0A94E2F733
:1011D000282B2C9381E081A30488F589E02D808160
:1011E0008064808381E090E0DF91CF91089508953D
:1011F0001F920F920FB60F9211242F933F934F938C
:101200008F939F93EF93FF938091C00082FD1CC04A
:101210004091C6008091D3029091D40201968F73C1
:1012200099272091D5023091D6028217930771F049
:10123000E091D302F091D402ED56FD4F408390939C
:10124000D4028093D30202C08091C600FF91EF9137
:101250009F918F914F913F912F910F900FBE0F90C3
:101260001F9018958DE292E00E946008892B11F082
:101270000C94F70808951F920F920FB60F92112445
:101280002F933F938F939F93EF93FF9320918F0220
:101290003091900280919102909192022817390723
:1012A00031F48091C1008F7D8093C10014C0E09122
:1012B0009102F0919202E15BFD4F208180919102B9
:1012C0009091920201968F73992790939202809346
:1012D00091022093C600FF91EF919F918F913F91D2
:1012E0002F910F900FBE0F901F901895CF92DF9205
:1012F000EF92FF92CF93DF93EC016A017B014115DE
:1013000081EE580761057105F9F0EC89FD8981E0EE
:1013100090E008A002C0880F991F0A94E2F780832A
:1013200060E079E08DE390E0A70196010E94DC0E79
:10133000215031094109510956954795379527950F
:10134000211580E1380798F0EC89FD89108260E86A
:1013500074E88EE190E0A70196010E94DC0E215016
:101360003109410951095695479537952795E889DF
:10137000F9893083EA89FB89208319A2EE89FF89E4
:10138000408181E090E09C010C8C02C0220F331F51
:101390000A94E2F7422B4083EE89FF8940819C0149
:1013A0000D8C02C0220F331F0A94E2F7422B4083B8
:1013B000EE89FF8940819C010E8C02C0220F331FF1
:1013C0000A94E2F7422B4083EE89FF8920810F8C3B
:1013D00002C0880F991F0A94E2F7809582238083C8
:1013E000DF91CF91FF90EF90DF90CF900895109212
:1013F000300210922F0288EE93E0A0E0B0E08093DC
:10140000310290933202A0933302B09334028CECF9
:1014100091E090932E0280932D0283E992E09093C5
:101420003A02809339028FE492E090933C028093D9
:101430003B0285EC90E090933E0280933D0284EC69
:1014400090E09093400280933F0280EC90E0909374
:1014500042028093410281EC90E090934402809399
:10146000430282EC90E0909346028093450286EC22
:1014700090E0909348028093470284E08093490271
:1014800083E080934A0287E080934B0285E080935B
:101490004C0281E080934D020895CF92DF92EF924B
:1014A000FF920F931F93CF93DF936C017A01EB01AF
:1014B000E60EF71E00E010E0CE15DF0561F0699141
:1014C000D601ED91FC910190F081E02DC6010995C6
:1014D000080F191FF1CFC801DF91CF911F910F9114
:1014E000FF90EF90DF90CF9008956115710581F026
:1014F000DB010D900020E9F7AD0141505109461B79
:10150000570BDC01ED91FC910280F381E02D0994F1
:1015100080E090E00895DC01ED91FC910190F08174
:10152000E02D09940F931F93CF93DF93EC016DE0AF
:101530000E948B0A8C016AE0CE010E948B0A800F08
:10154000911FDF91CF911F910F9108950F931F93DA
:10155000CF93DF93EC010E94750A8C01CE010E94AB
:10156000920A800F911FDF91CF911F910F910895E3
:101570008F929F92AF92BF92CF92DF92EF92FF92A3
:101580000F931F93CF93DF93CDB7DEB7A1970FB61D
:10159000F894DEBF0FBECDBF7C01C42EE52FCB017A
:1015A000D22E19A221E02D1510F02AE0D22E8E01A4
:1015B0000F5D1F4F8D2C912CA12CB12C6C2D7E2FEB
:1015C000A50194010E94DC0E8C2DD29E801911245D
:1015D000015011098A3014F4805D01C0895CF80162
:1015E0008083211531054105510521F0C22EE32FDD
:1015F000CA01E4CFB801C7010E94750AA1960FB6CF
:10160000F894DEBF0FBECDBFDF91CF911F910F9138
:10161000FF90EF90DF90CF90BF90AF909F908F9012
:101620000895CF92DF92EF92FF920F931F93CF9383
:10163000DF93EC016A017B012115310579F4E88122
:10164000F9810190F081E02D642FDF91CF911F91FE
:101650000F91FF90EF90DF90CF9009942A303105E1
:10166000E9F477FF1AC06DE20E948B0A8C014427CF
:101670005527BA014C195D096E097F092AE0CE0190
:101680000E94B80A800F911FDF91CF911F910F9197
:10169000FF90EF90DF90CF9008952AE0B701A60168
:1016A000CE01DF91CF911F910F91FF90EF90DF90CE
:1016B000CF900C94B80A4F925F926F927F928F9264
:1016C0009F92AF92BF92CF92DF92EF92FF920F93D1
:1016D0001F93CF93DF93EC016A017B01B22E9A0135
:1016E000AB01C701B6010E94B70E882319F068ED5F
:1016F00071E027C026013701E89477F82FEF3FEF1C
:101700004FE75FE7C301B2010E94B70E81110DC020
:101710002FEF3FEF4FE75FE7C301B2010E94E60CF6
:1017200018161CF46CED71E00CC02FEF3FEF4FE783
:101730005FE4C701B6010E94450E1816ACF460EED6
:1017400071E0CE01DF91CF911F910F91FF90EF904B
:10175000DF90CF90BF90AF909F908F907F906F90D1
:101760005F904F900C94750A2FEF3FEF4FE75FECBF
:10177000C701B6010E94E60C87FDE1CF20E030E012
:10178000A901C701B6010E94E60C87FF0AC06DE2FD
:10179000CE010E948B0A8C01F7FAF094F7F8F094CE
:1017A00002C000E010E0A12C60E070E080E09FE368
:1017B000AB1441F020E030E040E251E40E94EB0C39
:1017C000A394F6CF9B01AC01C701B6010E947A0C2D
:1017D0006B017C010E94640D2B013C010E94930D62
:1017E0009B01AC01C701B6010E94790C6B017C0121
:1017F0002AE0B301A201CE010E94B80A080F191F06
:10180000BB2039F067E871E0CE010E94750A080F2D
:10181000191F7B2C772041F120E030E040E251E4B9
:10182000C701B6010E944A0E6B017C010E945D0D4A
:101830004B01AA2497FCA094BA2C2AE030E0B50111
:10184000A401CE010E94110B080F191FC501B4019C
:101850000E94950D9B01AC01C701B6010E94790C55
:101860006B017C017A94D6CFC801DF91CF911F9193
:101870000F91FF90EF90DF90CF90BF90AF909F902F
:101880008F907F906F905F904F9008950C945B0BBA
:101890000E949A070E94AD00C2E3D9E00E9477023D
:1018A0002097E1F30E943209F9CFCF93DF9300D064
:1018B00000D0CDB7DEB79B01AC0161157105810584
:1018C000910569F069833A834B835C830E949F0F83
:1018D00029813A814B815C810E94FE0E03C060E049
:1018E00070E0CB010F900F900F900F90DF91CF9190
:1018F00008955058BB27AA270E94910C0C940B0EF8
:101900000E94FD0D38F00E94040E20F039F49F3F34
:1019100019F426F40C94FA0D0EF4E095E7FB0C9400
:10192000F40DE92F0E941C0E58F3BA1762077307D3
:101930008407950720F079F4A6F50C943E0E0EF47A
:10194000E0950B2EBA2FA02D0B01B90190010C01CF
:10195000CA01A0011124FF27591B99F0593F50F4E7
:10196000503E68F11A16F040A22F232F342F44273F
:10197000585FF3CF469537952795A795F040539537
:10198000C9F77EF41F16BA0B620B730B840BBAF007
:101990009150A1F0FF0FBB1F661F771F881FC2F772
:1019A0000EC0BA0F621F731F841F48F48795779586
:1019B0006795B795F7959E3F08F0B0CF9395880F40
:1019C00008F09927EE0F9795879508950E94D00DFE
:1019D00008F481E008950E94FF0C0C940B0E0E9405
:1019E000040E58F00E94FD0D40F029F45F3F29F0ED
:1019F0000C94F40D51110C943F0E0C94FA0D0E94AE
:101A00001C0E68F39923B1F3552391F3951B550BE5
:101A1000BB27AA2762177307840738F09F5F5F4FC1
:101A2000220F331F441FAA1FA9F335D00E2E3AF000
:101A3000E0E832D091505040E695001CCAF72BD018
:101A4000FE2F29D0660F771F881FBB1F2617370769
:101A50004807AB07B0E809F0BB0B802DBF01FF279B
:101A600093585F4F3AF09E3F510578F00C94F40D77
:101A70000C943F0E5F3FE4F3983ED4F38695779540
:101A80006795B795F7959F5FC9F7880F911D969554
:101A9000879597F90895E1E0660F771F881FBB1FB0
:101AA000621773078407BA0720F0621B730B840B5D
:101AB000BA0BEE1F88F7E09508950E94640D6894B4
:101AC000B1110C943F0E08950E94240E88F09F5788
:101AD00098F0B92F9927B751B0F0E1F0660F771F52
:101AE000881F991F1AF0BA95C9F714C0B13091F048
:101AF0000E943E0EB1E008950C943E0E672F782FA1
:101B00008827B85F39F0B93FCCF38695779567950C
:101B1000B395D9F73EF490958095709561957F4F78
:101B20008F4F9F4F0895E89409C097FB3EF490951E
:101B30008095709561957F4F8F4F9F4F9923A9F0A6
:101B4000F92F96E9BB279395F69587957795679535
:101B5000B795F111F8CFFAF4BB0F11F460FF1BC079
:101B60006F5F7F4F8F4F9F4F16C0882311F096E90C
:101B700011C0772321F09EE8872F762F05C06623BA
:101B800071F096E8862F70E060E02AF09A95660F73
:101B9000771F881FDAF7880F9695879597F908952C
:101BA000990F0008550FAA0BE0E8FEEF161617066E
:101BB000E807F907C0F012161306E407F50798F0D6
:101BC000621B730B840B950B39F40A2661F0232BEF
:101BD000242B252B21F408950A2609F4A140A6956B
:101BE0008FEF811D811D089597F99F6780E870E050
:101BF00060E008959FEF80EC089500240A94161683
:101C0000170618060906089500240A9412161306EA
:101C1000140605060895092E0394000C11F4882378
:101C200052F0BB0F40F4BF2B11F460FF04C06F5F94
:101C30007F4F8F4F9F4F089557FD9058440F551F6A
:101C400059F05F3F71F04795880F97FB991F61F03E
:101C50009F3F79F087950895121613061406551FB5
:101C6000F2CF4695F1DF08C0161617061806991F21
:101C7000F1CF86957105610508940895E894BB2716
:101C800066277727CB0197F908950E94D00D08F4B5
:101C90008FEF08950E945D0E0C940B0E0E94FD0DB7
:101CA00038F00E94040E20F0952311F00C94F40DEE
:101CB0000C94FA0D11240C943F0E0E941C0E70F32C
:101CC000959FC1F3950F50E0551F629FF001729FE1
:101CD000BB27F00DB11D639FAA27F00DB11DAA1FF0
:101CE000649F6627B00DA11D661F829F2227B00D3D
:101CF000A11D621F739FB00DA11D621F839FA00DC8
:101D0000611D221F749F3327A00D611D231F849F17
:101D1000600D211D822F762F6A2F11249F5750406E
:101D20009AF0F1F088234AF0EE0FFF1FBB1F661FE9
:101D3000771F881F91505040A9F79E3F510580F0B2
:101D40000C94F40D0C943F0E5F3FE4F3983ED4F3F3
:101D5000869577956795B795F795E7959F5FC1F756
:101D6000FE2B880F911D9695879597F908950E94EF
:101D7000D00D880B990B0895991B79E004C0991F29
:101D8000961708F0961B881F7A95C9F780950895D5
:101D900097FB072E16F4009407D077FD09D00E9418
:101DA000280F07FC05D03EF4909581959F4F08952C
:101DB000709561957F4F0895A1E21A2EAA1BBB1B57
:101DC000FD010DC0AA1FBB1FEE1FFF1FA217B30707
:101DD000E407F50720F0A21BB30BE40BF50B661F1D
:101DE000771F881F991F1A9469F7609570958095E1
:101DF00090959B01AC01BD01CF010895052E97FB85
:101E00001EF400940E94150F57FD07D00E94DC0EAF
:101E100007FC03D04EF40C94150F50954095309567
:101E200021953F4F4F4F5F4F089590958095709546
:101E300061957F4F8F4F9F4F08950E94420FA59F3E
:101E4000900DB49F900DA49F800D911D11240895B5
:101E5000AA1BBB1B51E107C0AA1FBB1FA617B707D0
:101E600010F0A61BB70B881F991F5A95A9F78095EC
:101E70009095BC01CD010895EE0FFF1F0590F491E0
:101E8000E02D0994A29FB001B39FC001A39F700DE4
:101E9000811D1124911DB29F700D811D1124911D72
:101EA00008958F929F92AF92BF92CF92DF92EF925E
:101EB000FF92CF93DF93EC01688179818A819B81C6
:101EC000611571058105910521F464E279ED8BE5D9
:101ED00097E02DE133EF41E050E00E94FE0E490112
:101EE0005A019B01AC01A7EAB1E40E941D0F6B01EE
:101EF0007C01ACEEB4EFA50194010E94B00FDC01AF
:101F0000CB018C0D9D1DAE1DBF1DB7FF03C00197FA
:101F1000A109B04888839983AA83BB83BC01CD0102
:101F20009F77DF91CF91FF90EF90DF90CF90BF90A0
:101F3000AF909F908F9008950E94510F089580E078
:101F400091E00E94510F0895609300017093010188
:101F500080930201909303010895B7FF0C941D0F25
:101F60000E941D0F821B930B089510E0C3E6D0E082
:101F700004C0FE010E943C0F2196C436D107C9F768
:041F8000F894FFCF03
:101F840001000000BD061405F505EB0500FC05473E
:101F9400070006000000DB02800051554555453A14
:101FA400206572726F722064756520746F20756E7F
:101FB400646573697261626C652073697A65206611
:101FC4006F722071756575652073697A652E00518D
:101FD400554555453A20696E73756666696369654A
:101FE4006E74206D656D6F727920746F20696E69EF
:101FF4007469616C697A652074656D706F72617261
:10200400792071756575652E002063656E74696D40
:1020140065746572730051554555453A2063616E88
:10202400277420706F70206974656D2066726F6DFF
:102034002071756575653A207175657565206973DC
:1020440020656D7074792E0000000000BA084D0AF6
:1020540060088D087208AF086E616E00696E6600D4
:042064006F7666002D
:00000001FF
