:100000000C9463000C948B000C948B000C948B006C
:100010000C948B000C948B000C948B000C948B0034
:100020000C948B000C948B000C948B000C94170296
:100030000C948B000C948B000C948B000C948B0014
:100040000C943E040C948B000C943A060C947D06A0
:100050000C948B000C948B000C948B000C948B00F4
:100060000C948B000C948B00000000070002010030
:100070000003040600000000000000000102040864
:100080001020408001020408102001020408102002
:10009000040404040404040402020202020203032E
:1000A00003030303000000002300260029000000D2
:1000B0000000250028002B0000000000240027007D
:1000C0002A000F02390711241FBECFEFD8E0DEBF90
:1000D000CDBF11E0A0E0B1E0E8E3F9E102C0059096
:1000E0000D92A034B107D9F712E0A0E4B1E001C04D
:1000F0001D92A332B107E1F710E0C6ECD0E004C0D6
:100100002297FE010E94310CC23CD107C9F70E9420
:1001100078090C949A0C0C9400006CE070E083E475
:1001200091E00E946D036DE070E080E491E00E9438
:100130006D03609108017091090180E491E00E94D3
:10014000730360910A0170910B0183E491E00E94B6
:10015000730368EE73E080E090E00E94AB0460916E
:1001600004017091050180E491E00E9473036091A5
:1001700006017091070183E491E00E9473036CED26
:1001800075E080E090E00E94AB0440E855E260E05A
:1001900070E089E791E00E94B80661E08091120169
:1001A0000E94CF0360E0809110010C94CF03CF92A6
:1001B000DF92EF92FF9220910C0130910D0140915E
:1001C0000E0150910F010E94610B20E034E244EFD8
:1001D00059E40E94120A6B017C0120E030E0A90181
:1001E0000E940E0A811106C0C12CD12C88ECE82E89
:1001F00081E4F82E22E030E0B701A60189E791E022
:100200000E947609E0917901F0917A010280F381F0
:10021000E02D4CE050E064E171E089E791E0099560
:1002200089E791E00E94D407C701B601FF90EF90E3
:10023000DF90CF900895CF92DF92EF92FF926B0103
:100240007C0162E070E080E090E00E94850961300E
:1002500071058105910569F46091060170910701AE
:1002600083E491E00E94730360910601709107019D
:100270000CC0609104017091050183E491E00E943B
:100280007303609104017091050180E491E00E9484
:10029000730360910A0170910B0183E491E00E9465
:1002A000730364EF71E080E090E00E94AB0420E40F
:1002B00032E44FE050E061E0809110010E941705A8
:1002C0000E94AB0A0E94D700A70196010E940E0A65
:1002D00018166CF0609104017091050183E491E0BF
:1002E0000E94730360910401709105010CC060913C
:1002F00006017091070183E491E00E94730360910D
:1003000006017091070180E491E00E9473036091FF
:1003100006017091070183E491E00E9473036091EC
:1003200004017091050180E491E0FF90EF90DF906F
:10033000CF900C94730360E0809112010E94080436
:1003400080ED97E00E94D10461E0809112010E944B
:1003500008048FE090E00E94D10460E080911201D7
:100360000E9408048AE090E00E94D1046091060196
:100370007091070183E491E00E947303609104018E
:100380007091050180E491E00E94730320E432E45F
:100390004FE050E061E0809110010E9417050E943B
:1003A000AB0A0E94D7006093460170934701809387
:1003B00048019093490120E030E040EA51E40E9476
:1003C0000E0A1816E4F060910A0170910B0183E4A3
:1003D00091E00E947303609108017091090180E42B
:1003E00091E00E94730364EF71E080E090E00E946E
:1003F000AB0460E070E088EC91E40C941B01609128
:1004000006017091070183E491E00E9473036091FB
:1004100004017091050180E491E00C94730383E47E
:1004200091E00E94D30280E491E00C94D3021F92E9
:100430000F920FB60F9211242F933F934F935F9318
:100440006F937F938F939F93AF93BF93EF93FF939C
:1004500080914B0187FF05C01092850010928400A7
:100460001AC020914B01332727FD309580914A0116
:1004700090E0281739077CF480914B01992787FD7C
:100480009095FC01EE0FFF1FE80FF91FE45BFE4F94
:10049000808186FD15C080914B018F5F80934B0159
:1004A00020914B01332727FD309580914A0190E040
:1004B00028173907BCF480914B018C305CF112C0D5
:1004C00080914B01992787FD9095FC01EE0FFF1F4E
:1004D000E80FF91FE45BFE4F808160E08F730E949C
:1004E0000804D9CF809184009091850004968034CF
:1004F0009C4918F480E49CE905C0809184009091A7
:100500008500049690938900809388008FEF8093F4
:100510004B0138C0809184009091850020914B015F
:10052000332727FD3095F901EE0FFF1FE20FF31F70
:10053000E45BFE4F21813281820F931F90938900EB
:100540008093880080914B01992787FD9095FC014D
:10055000EE0FFF1FE80FF91FE45BFE4F808186FF5F
:1005600011C080914B01992787FD9095FC01EE0FFA
:10057000FF1FE80FF91FE45BFE4F808161E08F737E
:100580000E940804FF91EF91BF91AF919F918F91CD
:100590007F916F915F914F913F912F910F900FBE7F
:1005A0000F901F90189520914A012C30A0F431E053
:1005B000320F30934A01FC012083822F90E0FC012E
:1005C000EE0FFF1FE80FF91FE45BFE4F88EB9BE087
:1005D0009283818308952FEFFC0120830895DF9299
:1005E000EF92FF920F931F93CF93DF93EC01D62EE0
:1005F0007A01890188818C3008F066C061E08D2D18
:100600000E94CF038881A82FB0E0FD01EE0FFF1FED
:10061000EA0FFB1FE45BFE4F2D2D2F739081907C22
:10062000922B908360E272E06E197F0977FF02C01F
:100630006D5F7F4F7595679575956795698340E602
:1006400059E0401B510B57FF02C04D5F5F4F55955E
:100650004795559547954A836CE00E94D30B9CE0E3
:10066000899FB001112420E030E0A901460F571FF7
:10067000FA01EE0FFF1FE40FF51FE45BFE4F9081C0
:1006800096FD16C02F5F3F4F2C30310571F7811159
:100690000FC01092800082E080938100109285004C
:1006A00010928400B19A80916F00826080936F00F5
:1006B000888190E0FC01EE0FFF1FE80FF91FE45B5B
:1006C000FE4F8081806480838881DF91CF911F916C
:1006D0000F91FF90EF90DF90089520E639E040E21F
:1006E00052E00C94EF02FC0180818C3070F5918116
:1006F00028E830E0291B310997FD3395220F331F7D
:10070000220F331F621773077CF0928128E532E0D5
:10071000291B310997FD3395220F331F220F331FF9
:10072000621773070CF49B014FB7F89490E0FC013B
:10073000EE0FFF1FE80FF91FE45BFE4F2250310957
:10074000220F331F328321834FBF0895833081F0FE
:1007500028F4813099F08230A1F008958630A9F014
:100760008730B9F08430D1F4809180008F7D03C050
:10077000809180008F7780938000089584B58F7773
:1007800002C084B58F7D84BD08958091B0008F77BD
:1007900003C08091B0008F7D8093B0000895CF9307
:1007A000DF9390E0FC01E458FF4F2491FC01E057F7
:1007B000FF4F8491882349F190E0880F991FFC0135
:1007C000E854FF4FA591B49182559F4FFC01C5910C
:1007D000D4919FB7611108C0F8948C912095822321
:1007E0008C93888182230AC0623051F4F8948C91F2
:1007F000322F309583238C938881822B888304C089
:10080000F8948C91822B8C939FBFDF91CF910895A8
:100810000F931F93CF93DF931F92CDB7DEB7282F8F
:1008200030E0F901E859FF4F8491F901E458FF4F96
:100830001491F901E057FF4F04910023C9F0882378
:1008400021F069830E94A6036981E02FF0E0EE0F9A
:10085000FF1FE255FF4FA591B4919FB7F8948C917B
:10086000611103C01095812301C0812B8C939FBF20
:100870000F90DF91CF911F910F9108951F920F92CA
:100880000FB60F9211242F933F938F939F93AF93A3
:10089000BF938091710190917201A0917301B09109
:1008A00074013091700123E0230F2D3720F401965D
:1008B000A11DB11D05C026E8230F0296A11DB11D83
:1008C000209370018093710190937201A093730142
:1008D000B09374018091750190917601A091770198
:1008E000B09178010196A11DB11D8093750190937F
:1008F0007601A0937701B0937801BF91AF919F915A
:100900008F913F912F910F900FBE0F901F901895D0
:100910003FB7F8948091750190917601A09177018D
:10092000B091780126B5A89B05C02F3F19F001961C
:10093000A11DB11D3FBF6627782F892F9A2F620F07
:10094000711D811D911D42E0660F771F881F991F41
:100950004A95D1F70895CF92DF92EF92FF92CF930D
:10096000DF936B017C010E948804EB01C114D10468
:10097000E104F10479F00E9488046C1B7D0B683E51
:100980007340A0F381E0C81AD108E108F108C8510A
:10099000DC4FECCFDF91CF91FF90EF90DF90CF90C5
:1009A00008950197009739F0880F991F880F991FB4
:1009B00002970197F1F70895789484B5826084BD19
:1009C00084B5816084BD85B5826085BD85B5816053
:1009D00085BDEEE6F0E0808181608083E1E8F0E0B3
:1009E0001082808182608083808181608083E0E8E2
:1009F000F0E0808181608083E1EBF0E080818460C1
:100A00008083E0EBF0E0808181608083EAE7F0E0C2
:100A10008081846080838081826080838081816026
:100A200080838081806880831092C10008958F92B6
:100A30009F92AF92BF92CF92DF92EF92FF920F936D
:100A40001F93CF93DF9390E0FC01E458FF4F049194
:100A5000FC01E057FF4F7491611102C010E001C02A
:100A6000102FDA01C901BF70672F70E0660F771F82
:100A70006C557F4F812C912C5401FB01C591D49171
:100A8000E881E023E11310C0750164012FEFC21A61
:100A9000D20AE20AF20A88169906AA06BB0609F4E7
:100AA00041C046015701ECCFFB01C591D491E881CB
:100AB000E023E11779F0750164012FEFC21AD20A21
:100AC000E20AF20A88169906AA06BB0659F14601FF
:100AD0005701EDCF88199909AA09BB0920E030E038
:100AE000A901FB01C591D4916881602361130AC0FB
:100AF000281739074A075B07A9F02F5F3F4F4F4F71
:100B00005F4FF2CFA5E1B0E00E94C80B605F7F4F5E
:100B10008F4F9F4F24E096958795779567952A95F7
:100B2000D1F703C060E070E0CB01DF91CF911F915E
:100B30000F91FF90EF90DF90CF90BF90AF909F907C
:100B40008F900895FC0124853585F901E05CFF4F05
:100B500080819181F901EE5BFF4F20813181821B01
:100B6000930B8F7399270895FC0184859585FC016B
:100B7000E05CFF4F40815181FC01EE5BFF4F208123
:100B800031814217530741F00190F081E02DE80FC9
:100B9000F91F808190E008958FEF9FEF0895FC0189
:100BA00084859585FC01E05CFF4F40815181FC010B
:100BB000EE5BFF4F208131814217530779F0A0810E
:100BC000B181A80FB91F8C91208131812F5F3F4FD8
:100BD0002F7333273183208390E008958FEF9FEFA9
:100BE0000895FC0181A1882329F0A489B5898C91FD
:100BF00086FFFBCF11A20895CF93DF93FC012685DA
:100C00003785D901A05CBF4F8D919C9111970196BA
:100C10008F739927E901CE5BDF4F48815981841793
:100C20009507D9F30D90BC91A02DA20FB31F6C9323
:100C3000A685B785A05CBF4F11969C938E93A6891D
:100C4000B7892C9181E090E0078C02C0880F991F32
:100C50000A94E2F7282B2C9381E081A30488F5897C
:100C6000E02D80818064808381E090E0DF91CF91EE
:100C7000089508951F920F920FB60F9211242F938B
:100C80003F934F938F939F93EF93FF938091C00077
:100C900082FD1CC04091C60080911F0290912002ED
:100CA00001968F7399272091210230912202821799
:100CB000930771F0E0911F02F0912002E152FE4F84
:100CC00040839093200280931F0202C08091C6004F
:100CD000FF91EF919F918F914F913F912F910F90A5
:100CE0000FBE0F901F90189589E791E00E94A20512
:100CF000892B11F00C94390608951F920F920FB6AC
:100D00000F9211242F933F938F939F93EF93FF9311
:100D10002091DB013091DC018091DD019091DE01B9
:100D20002817390731F48091C1008F7D8093C1006D
:100D300014C0E091DD01F091DE01E556FE4F208107
:100D40008091DD019091DE0101968F739927909338
:100D5000DE018093DD012093C600FF91EF919F910A
:100D60008F913F912F910F900FBE0F901F9018956C
:100D7000CF92DF92EF92FF92CF93DF93EC016A0163
:100D80007B01411581EE580761057105F9F0EC8989
:100D9000FD8981E090E008A002C0880F991F0A94A5
:100DA000E2F7808360E079E08DE390E0A7019601AF
:100DB0000E94DF0B21503109410951095695479591
:100DC00037952795211580E1380798F0EC89FD8942
:100DD000108260E874E88EE190E0A70196010E941D
:100DE000DF0B215031094109510956954795379537
:100DF0002795E889F9893083EA89FB89208319A23C
:100E0000EE89FF89408181E090E09C010C8C02C05A
:100E1000220F331F0A94E2F7422B4083EE89FF89A9
:100E200040819C010D8C02C0220F331F0A94E2F70F
:100E3000422B4083EE89FF8940819C010E8C02C0C9
:100E4000220F331F0A94E2F7422B4083EE89FF8979
:100E500020810F8C02C0880F991F0A94E2F78095B9
:100E600082238083DF91CF91FF90EF90DF90CF902E
:100E7000089510927C0110927B0188EE93E0A0E02F
:100E8000B0E080937D0190937E01A0937F01B093A9
:100E9000800185E291E090937A01809379018FED52
:100EA00091E090938601809385018BE991E0909386
:100EB00088018093870185EC90E090938A0180936C
:100EC000890184EC90E090938C0180938B0180ECFD
:100ED00090E090938E0180938D0181EC90E090934F
:100EE000900180938F0182EC90E090939201809327
:100EF000910186EC90E0909394018093930184E0BB
:100F00008093950183E08093960187E08093970119
:100F100085E08093980181E0809399010895CF92B4
:100F2000DF92EF92FF920F931F93CF93DF936C01A9
:100F30007A01EB01E60EF71E00E010E0CE15DF05AA
:100F400061F06991D601ED91FC910190F081E02D65
:100F5000C6010995080F191FF1CFC801DF91CF9184
:100F60001F910F91FF90EF90DF90CF900895611542
:100F7000710581F0DB010D900020E9F7AD014150D2
:100F80005109461B570BDC01ED91FC910280F38166
:100F9000E02D099480E090E00895DC01ED91FC9152
:100FA0000190F081E02D09940F931F93CF93DF936D
:100FB000EC016DE00E94CD078C016AE0CE010E9439
:100FC000CD07800F911FDF91CF911F910F91089551
:100FD0008F929F92AF92BF92CF92DF92EF92FF9249
:100FE0000F931F93CF93DF93CDB7DEB7A1970FB6C3
:100FF000F894DEBF0FBECDBF7C01C42EE52FCB0120
:10100000D22E19A221E02D1510F02AE0D22E8E0149
:101010000F5D1F4F8D2C912CA12CB12C6C2D7E2F90
:10102000A50194010E94DF0B8C2DD29E8019112402
:10103000015011098A3014F4805D01C0895CF80107
:101040008083211531054105510521F0C22EE32F82
:10105000CA01E4CFB801C7010E94B707A1960FB635
:10106000F894DEBF0FBECDBFDF91CF911F910F91DE
:10107000FF90EF90DF90CF90BF90AF909F908F90B8
:101080000895CF92DF92EF92FF920F931F93CF9329
:10109000DF93EC016A017B012115310579F4E881C8
:1010A000F9810190F081E02D642FDF91CF911F91A4
:1010B0000F91FF90EF90DF90CF9009942A30310587
:1010C000E9F477FF1AC06DE20E94CD078C01442736
:1010D0005527BA014C195D096E097F092AE0CE0136
:1010E0000E94E807800F911FDF91CF911F910F9110
:1010F000FF90EF90DF90CF9008952AE0B701A6010E
:10110000CE01DF91CF911F910F91FF90EF90DF9073
:10111000CF900C94E8074F925F926F927F928F92DC
:101120009F92AF92BF92CF92DF92EF92FF920F9376
:101130001F93CF93DF93EC016A017B01B22E9A01DA
:10114000AB01C701B6010E94C40B882319F061E30B
:1011500071E027C026013701E89477F82FEF3FEFC1
:101160004FE75FE7C301B2010E94C40B81110DC0BC
:101170002FEF3FEF4FE75FE7C301B2010E940E0A76
:1011800018161CF465E371E00CC02FEF3FEF4FE73A
:101190005FE4C701B6010E945D0B1816ACF469E369
:1011A00071E0CE01DF91CF911F910F91FF90EF90F1
:1011B000DF90CF90BF90AF909F908F907F906F9077
:1011C0005F904F900C94B7072FEF3FEF4FE75FEC26
:1011D000C701B6010E940E0A87FDE1CF20E030E092
:1011E000A901C701B6010E940E0A87FF0AC06DE27D
:1011F000CE010E94CD078C01F7FAF094F7F8F09435
:1012000002C000E010E0A12C60E070E080E09FE30D
:10121000AB1441F020E030E040E251E40E94120AB9
:10122000A394F6CF9B01AC01C701B6010E94AA09A5
:101230006B017C010E947F0A2B013C010E94AB0ADA
:101240009B01AC01C701B6010E94A9096B017C0199
:101250002AE0B301A201CE010E94E807080F191F7E
:10126000BB2039F06DE371E0CE010E94B707080F93
:10127000191F7B2C772041F120E030E040E251E45F
:10128000C701B6010E94610B6B017C010E947A0AC2
:101290004B01AA2497FCA094BA2C2AE030E0B501B7
:1012A000A401CE010E944108080F191FC501B40115
:1012B0000E94AD0A9B01AC01C701B6010E94A909B9
:1012C0006B017C017A94D6CFC801DF91CF911F9139
:1012D0000F91FF90EF90DF90CF90BF90AF909F90D5
:1012E0008F907F906F905F904F9008950C948B0833
:1012F0000E94DC040E948D00C4E7D6E00E949B019E
:101300002097E1F30E947406F9CFCF93DF9300D0CA
:1013100000D0CDB7DEB79B01AC0161157105810529
:10132000910569F069833A834B835C830E94840C46
:1013300029813A814B815C810E94010C03C060E0ED
:1013400070E0CB010F900F900F900F90DF91CF9135
:1013500008955058BB27AA270ED075C166D130F02A
:101360006BD120F031F49F3F11F41EF45BC10EF4F9
:10137000E095E7FB51C1E92F77D180F3BA176207F7
:1013800073078407950718F071F49EF58FC10EF46A
:10139000E0950B2EBA2FA02D0B01B90190010C0185
:1013A000CA01A0011124FF27591B99F0593F50F49D
:1013B000503E68F11A16F040A22F232F342F4427F5
:1013C000585FF3CF469537952795A795F0405395ED
:1013D000C9F77EF41F16BA0B620B730B840BBAF0BD
:1013E0009150A1F0FF0FBB1F661F771F881FC2F728
:1013F0000EC0BA0F621F731F841F48F4879577953C
:101400006795B795F7959E3F08F0B3CF9395880FF2
:1014100008F09927EE0F979587950895D9D008F48D
:1014200081E008950CD00FC107D140F0FED030F01C
:1014300021F45F3F19F0F0C0511139C1F3C014D14C
:1014400098F39923C9F35523B1F3951B550BBB278B
:10145000AA2762177307840738F09F5F5F4F220F38
:10146000331F441FAA1FA9F333D00E2E3AF0E0E831
:1014700030D091505040E695001CCAF729D0FE2F7D
:1014800027D0660F771F881FBB1F2617370748070F
:10149000AB07B0E809F0BB0B802DBF01FF279358C5
:1014A0005F4F2AF09E3F510568F0B6C000C15F3F14
:1014B000ECF3983EDCF3869577956795B795F795AD
:1014C0009F5FC9F7880F911D9695879597F90895A5
:1014D000E1E0660F771F881FBB1F62177307840741
:1014E000BA0720F0621B730B840BBA0BEE1F88F750
:1014F000E095089504D06894B111D9C00895BCD086
:1015000088F09F5790F0B92F9927B751A0F0D1F0EC
:10151000660F771F881F991F1AF0BA95C9F712C076
:10152000B13081F0C3D0B1E00895C0C0672F782FEB
:101530008827B85F39F0B93FCCF3869577956795E2
:10154000B395D9F73EF490958095709561957F4F4E
:101550008F4F9F4F0895E89409C097FB3EF49095F4
:101560008095709561957F4F8F4F9F4F9923A9F07C
:10157000F92F96E9BB279395F6958795779567950B
:10158000B795F111F8CFFAF4BB0F11F460FF1BC04F
:101590006F5F7F4F8F4F9F4F16C0882311F096E9E2
:1015A00011C0772321F09EE8872F762F05C0662390
:1015B00071F096E8862F70E060E02AF09A95660F49
:1015C000771F881FDAF7880F9695879597F9089502
:1015D000990F0008550FAA0BE0E8FEEF1616170644
:1015E000E807F907C0F012161306E407F50798F0AC
:1015F000621B730B840B950B39F40A2661F0232BC5
:10160000242B252B21F408950A2609F4A140A69540
:101610008FEF811D811D089597F99F6780E870E025
:1016200060E008959FEF80EC089500240A94161658
:10163000170618060906089500240A9412161306C0
:10164000140605060895092E0394000C11F488234E
:1016500052F0BB0F40F4BF2B11F460FF04C06F5F6A
:101660007F4F8F4F9F4F089557FD9058440F551F40
:1016700059F05F3F71F04795880F97FB991F61F014
:101680009F3F79F087950895121613061406551F8B
:10169000F2CF4695F1DF08C0161617061806991FF7
:1016A000F1CF86957105610508940895E894BB27EC
:1016B00066277727CB0197F908958ADF08F48FEF23
:1016C00008950BD0C0CFB1DF28F0B6DF18F0952316
:1016D00009F0A2CFA7CF1124EACFC6DFA0F3959FD0
:1016E000D1F3950F50E0551F629FF001729FBB2709
:1016F000F00DB11D639FAA27F00DB11DAA1F649FB5
:101700006627B00DA11D661F829F2227B00DA11D67
:10171000621F739FB00DA11D621F839FA00D611DED
:10172000221F749F3327A00D611D231F849F600D0E
:10173000211D822F762F6A2F11249F5750408AF047
:10174000E1F088234AF0EE0FFF1FBB1F661F771FD3
:10175000881F91505040A9F79E3F510570F05CCF13
:10176000A6CF5F3FECF3983EDCF3869577956795BF
:10177000B795F795E7959F5FC1F7FE2B880F911DF1
:101780009695879597F9089523DF880B990B08950F
:101790000E94200CA59F900DB49F900DA49F800DDA
:1017A000911D11240895991B79E004C0991F961783
:1017B00008F0961B881F7A95C9F780950895A1E2D5
:1017C0001A2EAA1BBB1BFD010DC0AA1FBB1FEE1FBB
:1017D000FF1FA217B307E407F50720F0A21BB30B06
:1017E000E40BF50B661F771F881F991F1A9469F782
:1017F00060957095809590959B01AC01BD01CF01DE
:101800000895052E97FB1EF400940E94180C57FDB6
:1018100007D00E94DF0B07FC03D04EF40C94180C89
:1018200050954095309521953F4F4F4F5F4F08950C
:1018300090958095709561957F4F8F4F9F4F08953C
:10184000A29FB001B39FC001A39F700D811D112401
:10185000911DB29F700D811D1124911D0895EE0FF1
:10186000FF1F0590F491E02D09948F929F92AF9203
:10187000BF92CF92DF92EF92FF92CF93DF93EC0172
:10188000688179818A819B81611571058105910546
:1018900021F464E279ED8BE597E02DE133EF41E04F
:1018A00050E00E94010C49015A019B01AC01A7EADA
:1018B000B1E40E94C80B6B017C01ACEEB4EFA50152
:1018C00094010E94950CC60ED71EE81EF91EF7FE65
:1018D00006C081E0C81AD108E10880E8F80AC88289
:1018E000D982EA82FB82C701B6019F77DF91CF914F
:1018F000FF90EF90DF90CF90BF90AF909F908F9030
:1019000008950E94350C089580E091E00E94350C06
:1019100008956093000170930101809302019093F8
:1019200003010895B7FF0C94C80B0E94C80B821BDB
:08193000930B0895F894FFCF1A
:1019380001000000BD061405F505EB0500FC054790
:10194800070006002063656E74696D6574657273BF
:101958000000000000FC058F07A205CF05B405F1C3
:10196800056E616E00696E66006F7666002E000077
:00000001FF
