:100000000C945E000C9486000C9486000C94860080
:100010000C9486000C9486000C9486000C941406B4
:100020000C9486000C9486000C9486000C94860038
:100030000C9486000C9486000C9486000C94860028
:100040000C94B1000C9486000C9482020C94C502AE
:100050000C9486000C9486000C9486000C94860008
:100060000C9486000C948600020000000700020138
:10007000000003040600000000000000000102046C
:10008000081020408001020408102001020408101A
:100090002004040404040404040202020202020311
:1000A000030303030300000000250028002B0000C9
:1000B000000000240027002A0000810311241FBE35
:1000C000CFEFD8E0DEBFCDBF11E0A0E0B1E0E0EFC0
:1000D000FEE002C005900D92AC32B107D9F711E0F5
:1000E000ACE2B1E001C01D92A43FB107E1F710E01E
:1000F000CCEBD0E004C02297FE010E947207CA3BFD
:10010000D107C9F70E9470060C9476070C94000082
:1001100040E855E260E070E085E391E00E94000372
:1001200061E071E085E391E00E94D80128EE33E0C0
:1001300040E050E068EB7BE084E00E94D70368EE8B
:1001400073E080E090E00C941E0167E071E085E3CD
:1001500091E00E94D80168EE73E080E090E00C949A
:100160001E011F920F920FB60F9211242F933F93EF
:100170008F939F93AF93BF9380912D0190912E0108
:10018000A0912F01B091300130912C0123E0230F79
:100190002D3720F40196A11DB11D05C026E8230FBF
:1001A0000296A11DB11D20932C0180932D019093E7
:1001B0002E01A0932F01B0933001809131019091D5
:1001C0003201A0913301B09134010196A11DB11DFE
:1001D0008093310190933201A0933301B0933401A5
:1001E000BF91AF919F918F913F912F910F900FBE33
:1001F0000F901F9018953FB7F8948091310190911E
:100200003201A0913301B091340126B5A89B05C0FD
:100210002F3F19F00196A11DB11D3FBF6627782F12
:10022000892F9A2F620F711D811D911D42E0660F6B
:10023000771F881F991F4A95D1F70895CF92DF92B3
:10024000EF92FF92CF93DF936B017C010E94FB0042
:10025000EB01C114D104E104F10479F00E94FB0028
:100260006C1B7D0B683E7340A0F381E0C81AD10877
:10027000E108F108C851DC4FECCFDF91CF91FF903E
:10028000EF90DF90CF900895789484B5826084BD1C
:1002900084B5816084BD85B5826085BD85B581608A
:1002A00085BDEEE6F0E0808181608083E1E8F0E0EA
:1002B0001082808182608083808181608083E0E819
:1002C000F0E0808181608083E1EBF0E080818460F8
:1002D0008083E0EBF0E0808181608083EAE7F0E0FA
:1002E000808184608083808182608083808181605E
:1002F00080838081806880831092C1000895CF92AE
:10030000DF92EF92FF920F931F93CF93DF936C01D5
:100310007A01EB01E60EF71E00E010E0CE15DF05D6
:1003200061F06991D601ED91FC910190F081E02D91
:10033000C6010995080F191FF1CFC801DF91CF91B0
:100340001F910F91FF90EF90DF90CF90089561156E
:10035000710581F0DB010D900020E9F7AD014150FE
:100360005109461B570BDC01ED91FC910280F38192
:10037000E02D099480E090E00895DC01ED91FC917E
:100380000190F081E02D09940F931F93CF93DF9399
:10039000EC016DE00E94BD018C016AE0CE010E947B
:1003A000BD01800F911FDF91CF911F910F91089593
:1003B0000F931F93CF93DF93EC010E94A7018C0151
:1003C000CE010E94C401800F911FDF91CF911F9138
:1003D0000F910895FC0124853585F901E05CFF4FFC
:1003E00080819181F901EE5BFF4F20813181821B79
:1003F000930B8F7399270895FC0184859585FC01E3
:10040000E05CFF4F40815181FC01EE5BFF4F20819A
:1004100031814217530741F00190F081E02DE80F40
:10042000F91F808190E008958FEF9FEF0895FC0100
:1004300084859585FC01E05CFF4F40815181FC0182
:10044000EE5BFF4F208131814217530779F0A08185
:10045000B181A80FB91F8C91208131812F5F3F4F4F
:100460002F7333273183208390E008958FEF9FEF20
:100470000895FC0181A1882329F0A489B5898C9174
:1004800086FFFBCF11A20895CF93DF93FC01268551
:100490003785D901A05CBF4F8D919C911197019632
:1004A0008F739927E901CE5BDF4F4881598184170B
:1004B0009507D9F30D90BC91A02DA20FB31F6C939B
:1004C000A685B785A05CBF4F11969C938E93A68995
:1004D000B7892C9181E090E0078C02C0880F991FAA
:1004E0000A94E2F7282B2C9381E081A30488F589F4
:1004F000E02D80818064808381E090E0DF91CF9166
:10050000089508951F920F920FB60F9211242F9302
:100510003F934F938F939F93EF93FF938091C000EE
:1005200082FD1CC04091C6008091DB019091DC01EE
:1005300001968F7399272091DD013091DE0182179A
:10054000930771F0E091DB01F091DC01E556FE4F7D
:1005500040839093DC018093DB0102C08091C60050
:10056000FF91EF919F918F914F913F912F910F901C
:100570000FBE0F901F90189585E391E00E94EA014D
:10058000892B11F00C94810208951F920F920FB6DF
:100590000F9211242F933F938F939F93EF93FF9389
:1005A00020919701309198018091990190919A0141
:1005B0002817390731F48091C1008F7D8093C100E5
:1005C00014C0E0919901F0919A01E95AFE4F2081FF
:1005D0008091990190919A0101968F739927909338
:1005E0009A01809399012093C600FF91EF919F910A
:1005F0008F913F912F910F900FBE0F901F901895E4
:10060000CF92DF92EF92FF92CF93DF93EC016A01DA
:100610007B01411581EE580761057105F9F0EC8900
:10062000FD8981E090E008A002C0880F991F0A941C
:10063000E2F7808360E079E08DE390E0A701960126
:100640000E942007215031094109510956954795CB
:1006500037952795211580E1380798F0EC89FD89B9
:10066000108260E874E88EE190E0A70196010E9494
:100670002007215031094109510956954795379571
:100680002795E889F9893083EA89FB89208319A2B3
:10069000EE89FF89408181E090E09C010C8C02C0D2
:1006A000220F331F0A94E2F7422B4083EE89FF8921
:1006B00040819C010D8C02C0220F331F0A94E2F787
:1006C000422B4083EE89FF8940819C010E8C02C041
:1006D000220F331F0A94E2F7422B4083EE89FF89F1
:1006E00020810F8C02C0880F991F0A94E2F7809531
:1006F00082238083DF91CF91FF90EF90DF90CF90A6
:100700000895109238011092370188EE93E0A0E02E
:10071000B0E08093390190933A01A0933B01B093EC
:100720003C0180E291E090933601809335018BE9A2
:1007300091E0909342018093410187E591E090938D
:1007400044018093430185EC90E0909346018093AF
:10075000450184EC90E0909348018093470180EC40
:1007600090E090934A018093490181EC90E090934E
:100770004C0180934B0182EC90E090934E0180936A
:100780004D0186EC90E09093500180934F0184E0FE
:100790008093510183E08093520187E0809353015D
:1007A00085E08093540181E08093550108953F9244
:1007B0004F925F926F927F928F929F92AF92BF9271
:1007C000CF92DF92EF92FF920F931F93CF93DF931D
:1007D00000D000D0CDB7DEB78B0129013A0190914E
:1007E0000001981721F09F3F09F0D3C104C0E8E64B
:1007F000F0E0349081C080930001E8E6F0E0E491FD
:10080000EF3F09F4C6C1E13031F1E23009F44BC0E9
:10081000E11171C014BC15BC94B5926094BD95B53E
:10082000916095BD282F30E0F901EF56FF4FE4911C
:10083000F0E0EE0FFF1FEB55FF4F459154915093A1
:10084000EF014093EE01F901E358FF4F249120930B
:10085000ED01312C53C010928000109281009091D4
:1008600081009860909381009091810091609093B5
:100870008100282F30E0F901EF56FF4FE491F0E0BE
:10088000EE0FFF1FEB55FF4F459154915093E80138
:100890004093E701F901E358FF4F24912093E601CB
:1008A000332433942BC01092B0001092B100909179
:1008B000B00092609093B0009091B10091609093DD
:1008C000B100282F30E0F901EF56FF4FE491F0E03E
:1008D000EE0FFF1FEB55FF4F459154915093E101EF
:1008E0004093E001F901E358FF4F24912093DF0189
:1008F00052E0352E03C03E2E37FC4BC161E00E9412
:10090000A6064801A12CB12C832D8D7F09F0C0C013
:1009100060E072E18AE790E0A50194010E9442073D
:1009200029833A834B835C8369017A0181E0C81A89
:10093000D108E108F1089FEFC916D104E104F104E0
:1009400009F008F49AC060E472E48FE090E0A50139
:1009500094010E94420769017A01E1E0CE1AD108B0
:10096000E108F108F2E03F1219C08FEFC816D10478
:10097000E104F10409F008F487C060E970ED83E058
:1009800090E0A50194010E94420769017A0191E07B
:10099000C91AD108E108F10883E001C082E0EFEF55
:1009A000CE16D104E104F10409F008F467C068E44C
:1009B00078EE81E090E0A50194010E944207690170
:1009C0007A01F1E0CF1AD108E108F1083320E1F013
:1009D00082E038121BC09FEFC916D104E104F10474
:1009E00009F008F4D4C064E274EF80E090E0A5015F
:1009F00094010E94420769017A01E1E0CE1AD10810
:100A0000E108F10885E003C083E001C084E0FFEF66
:100A1000CF16D104E104F10489F180F162E17AE7B3
:100A200080E090E0A50194010E94420769017A01EB
:100A300081E0C81AD108E108F108311002C084E051
:100A400001C086E09FEFC916D104E104F104B1F0C2
:100A5000A8F0C980DA80EB80FC809AE0F594E794F6
:100A6000D794C7949A95D1F7E1E0CE1AD108E1085E
:100A7000F108332031F087E008C081E0332011F025
:100A800004C085E085BD34C082E08093B10030C0F1
:100A900060E072E18AE790E0A50194010E944207BC
:100AA00069017A01F1E0CF1AD108E108F108C11417
:100AB000D10481E0E806F10488F068E478EE81E092
:100AC00090E0A50194010E94420769017A0191E03A
:100AD000C91AD108E108F10893E001C091E0E1E012
:100AE0003E1206C080918100887F892B809381000F
:100AF000411451046104710471F0D801AA0FBB1FA5
:100B0000A30192010E94150728EE33E040E050E077
:100B10000E94200703C02FEF3FEFA901F1E03F162D
:100B2000A1F082E0381619F1311033C0C7BC209310
:100B3000F0013093F1014093F2015093F301809161
:100B40006E00826080936E0024C0D0928900C092B3
:100B500088002093E9013093EA014093EB01509320
:100B6000EC0180916F00826080936F0012C0C09290
:100B7000B3002093E2013093E3014093E4015093EA
:100B8000E5018091700082608093700002C084E073
:100B90007CCF0F900F900F900F90DF91CF911F910E
:100BA0000F91FF90EF90DF90CF90BF90AF909F900C
:100BB0008F907F906F905F904F903F90089581301D
:100BC00039F018F0823051F0089510926E000895B7
:100BD00080916F008D7F80936F00089580917000E9
:100BE0008D7F8093700081E08093B0008091B10090
:100BF000887F84608093B1001092B3000895CF93F2
:100C0000C82F809100018C1307C0E8E6F0E08491C2
:100C10009FEF9093000101C08FEF0E94DF0560E01D
:100C20008C2FCF910C94DF061F920F920FB60F926C
:100C300011242F933F934F935F936F937F938F93E1
:100C40009F93AF93BF93EF93FF938091E2019091B5
:100C5000E301A091E401B091E501892B8A2B8B2B54
:100C600051F19091DF01E091E001F091E10180818B
:100C7000892780838091E2019091E301A091E401B2
:100C8000B091E501181619061A061B06C4F48091E6
:100C9000E2019091E301A091E401B091E501019797
:100CA000A109B1098093E2019093E301A093E401CB
:100CB000B093E50104C0809100010E94FF05FF91FF
:100CC000EF91BF91AF919F918F917F916F915F91C4
:100CD0004F913F912F910F900FBE0F901F9018953D
:100CE0000E9444010E948800CCEBD2E00E94A50043
:100CF0002097E1F30E94BC02F9CF833081F028F401
:100D0000813099F08230A1F008958630A9F08730C3
:100D1000B9F08430D1F4809180008F7D03C0809140
:100D200080008F7780938000089584B58F7702C00C
:100D300084B58F7D84BD08958091B0008F7703C006
:100D40008091B0008F7D8093B0000895CF93DF93A2
:100D500090E0FC01E358FF4F2491FC01EF56FF4F58
:100D60008491882349F190E0880F991FFC01E15597
:100D7000FF4FA591B4918B559F4FFC01C591D49124
:100D80009FB7611108C0F8948C91209582238C93B1
:100D9000888182230AC0623051F4F8948C91322FFA
:100DA000309583238C938881822B888304C0F894A8
:100DB0008C91822B8C939FBFDF91CF9108950F93DD
:100DC0001F93CF93DF931F92CDB7DEB7282F30E06C
:100DD000F901E759FF4F8491F901E358FF4F14914E
:100DE000F901EF56FF4F04910023C9F0882321F049
:100DF00069830E947D066981E02FF0E0EE0FFF1FFE
:100E0000EB55FF4FA591B4919FB7F8948C91611168
:100E100003C01095812301C0812B8C939FBF0F903D
:100E2000DF91CF911F910F9108950E946107A59FB7
:100E3000900DB49F900DA49F800D911D11240895D5
:100E4000A1E21A2EAA1BBB1BFD010DC0AA1FBB1FCE
:100E5000EE1FFF1FA217B307E407F50720F0A21B40
:100E6000B30BE40BF50B661F771F881F991F1A94AD
:100E700069F760957095809590959B01AC01BD01D7
:100E8000CF010895052E97FB1EF400940E94590788
:100E900057FD07D00E94200707FC03D04EF40C94A6
:100EA000590750954095309521953F4F4F4F5F4FD3
:100EB000089590958095709561957F4F8F4F9F4FC6
:100EC0000895A29FB001B39FC001A39F700D811D23
:100ED0001124911DB29F700D811D1124911D089543
:100EE000EE0FFF1F0590F491E02D0994F894FFCFC9
:100EF000FF42656570210057616974696E672066FD
:100F00006F722072657365742E2E2E000000000033
:0C0F100044027F01EA011702FC013902D3
:00000001FF
