:100000000C945F000C9487000C9487000C9487007C
:100010000C9487000C9487000C9487000C9445097D
:100020000C9487000C9487000C9487000C94FE00BD
:100030000C9487000C9487000C9487000C94870024
:100040000C948D020C9487000C94B3050C94F60567
:100050000C9487000C9487000C9487000C94870004
:100060000C9487000C948700000000070002010038
:100070000003040600000000000000000102040864
:100080001020408001020408102001020408102002
:10009000040404040404040402020202020203032E
:1000A0000303030300000000250028002B000000CC
:1000B0000000240027002A000200A600B206112436
:1000C0001FBECFEFD8E0DEBFCDBF11E0A0E0B1E0B2
:1000D000EAE3F4E102C005900D92AC35B107D9F71F
:1000E00012E0ACE5B1E001C01D92A035B107E1F727
:1000F00010E0CEEBD0E004C02297FE010E94170A68
:10010000CA3BD107C9F70E94A1090C941B0A0C94A1
:10011000000028EE33E040E050E068EB7BE084E054
:100120000E94080768EE73E080E090E00E94FA0207
:1001300040E855E260E070E081E991E00E9431061C
:100140006DE070E08FE591E00C9454028FE591E052
:100150000E94BA018CE591E00C94BA01CF93DF9331
:10016000CFE5D5E065E071E081E991E00E943104DE
:100170004AE050E0BE0181E991E00E94030563E19D
:1001800071E081E991E00E944E0469E271E081E949
:1001900091E00E944E0481E991E00E941B05892BA9
:1001A000D1F381E991E00E94480560E471E081E9C2
:1001B00091E00E944E04BE018FE591E00E945A0238
:1001C00060E777E180E090E00E94FA026CED75E074
:1001D0008FE591E00E945A022BE430E040E050E0CD
:1001E00060EA7FE084E00E9408076996C23786E0F3
:1001F000D80709F0B7CFDF91CF9108951F920F92E2
:100200000FB60F9211242F933F934F935F936F93E9
:100210007F938F939F93AF93BF93EF93FF938091BF
:10022000630187FF05C010928500109284001AC0F8
:1002300020916301332727FD30958091620190E082
:10024000281739077CF480916301992787FD9095E1
:10025000FC01EE0FFF1FE80FF91FEC59FE4F8081E4
:1002600086FD15C0809163018F5F809363012091AB
:100270006301332727FD30958091620190E02817B4
:100280003907BCF4809163018C305CF112C080911D
:100290006301992787FD9095FC01EE0FFF1FE80F82
:1002A000F91FEC59FE4F808160E08F730E94BD03FF
:1002B000D9CF8091840090918500049680349C4928
:1002C00018F480E49CE905C0809184009091850039
:1002D000049690938900809388008FEF8093630148
:1002E00038C080918400909185002091630133276C
:1002F00027FD3095F901EE0FFF1FE20FF31FEC59B8
:10030000FE4F21813281820F931F90938900809349
:10031000880080916301992787FD9095FC01EE0F7D
:10032000FF1FE80FF91FEC59FE4F808186FF11C0B7
:1003300080916301992787FD9095FC01EE0FFF1FC7
:10034000E80FF91FEC59FE4F808161E08F730E9426
:10035000BD03FF91EF91BF91AF919F918F917F91DD
:100360006F915F914F913F912F910F900FBE0F9022
:100370001F901895209162012C30A0F431E0320FCB
:1003800030936201FC012083822F90E0FC01EE0F8C
:10039000FF1FE80FF91FEC59FE4F88EB9BE092839B
:1003A000818308952FEFFC0120830895DF92EF925F
:1003B000FF920F931F93CF93DF93EC01D62E7A0118
:1003C000890188818C3008F066C061E08D2D0E9423
:1003D00084038881A82FB0E0FD01EE0FFF1FEA0F14
:1003E000FB1FEC59FE4F2D2D2F739081907C922B8B
:1003F000908360E272E06E197F0977FF02C06D5F43
:100400007F4F7595679575956795698340E659E0C7
:10041000401B510B57FF02C04D5F5F4F55954795ED
:10042000559547954A836CE00E94B9099CE0899FE5
:10043000B001112420E030E0A901460F571FFA0156
:10044000EE0FFF1FE40FF51FEC59FE4F908196FD54
:1004500016C02F5F3F4F2C30310571F781110FC04F
:100460001092800082E080938100109285001092AB
:100470008400B19A80916F00826080936F008881C0
:1004800090E0FC01EE0FFF1FE80FF91FEC59FE4F43
:100490008081806480838881DF91CF911F910F914B
:1004A000FF90EF90DF90089520E639E040E252E0BF
:1004B0000C94D601FC0180818C3070F5918128E884
:1004C00030E0291B310997FD3395220F331F220F8E
:1004D000331F621773077CF0928128E532E0291BF5
:1004E000310997FD3395220F331F220F331F6217F7
:1004F00073070CF49B014FB7F89490E0FC01EE0FEA
:10050000FF1FE80FF91FEC59FE4F22503109220F4F
:10051000331F328321834FBF08951F920F920FB66E
:100520000F9211242F933F938F939F93AF93BF9379
:100530008091890190918A01A0918B01B0918C01E9
:100540003091880123E0230F2D3720F40196A11D5F
:10055000B11D05C026E8230F0296A11DB11D2093F1
:1005600088018093890190938A01A0938B01B093B5
:100570008C0180918D0190918E01A0918F01B0919D
:1005800090010196A11DB11D80938D0190938E0164
:10059000A0938F01B0939001BF91AF919F918F91E4
:1005A0003F912F910F900FBE0F901F9018953FB75E
:1005B000F89480918D0190918E01A0918F01B0915E
:1005C000900126B5A89B05C02F3F19F00196A11DEB
:1005D000B11D3FBF6627782F892F9A2F620F711D9B
:1005E000811D911D42E0660F771F881F991F4A9554
:1005F000D1F70895CF92DF92EF92FF92CF93DF93DE
:100600006B017C010E94D702EB01C114D104E1040B
:10061000F10479F00E94D7026C1B7D0B683E734099
:10062000A0F381E0C81AD108E108F108C851DC4FF5
:10063000ECCFDF91CF91FF90EF90DF90CF900895B6
:10064000789484B5826084BD84B5816084BD85B5AD
:10065000826085BD85B5816085BDEEE6F0E0808174
:1006600081608083E1E8F0E0108280818260808395
:10067000808181608083E0E8F0E080818160808318
:10068000E1EBF0E0808184608083E0EBF0E080814A
:1006900081608083EAE7F0E08081846080838081EC
:1006A0008260808380818160808380818068808394
:1006B0001092C1000895833081F028F4813099F0C0
:1006C0008230A1F008958630A9F08730B9F08430E7
:1006D000D1F4809180008F7D03C0809180008F775E
:1006E00080938000089584B58F7702C084B58F7D94
:1006F00084BD08958091B0008F7703C08091B000D1
:100700008F7D8093B0000895CF93DF9390E0FC013C
:10071000E458FF4F2491FC01E057FF4F8491882358
:1007200049F190E0880F991FFC01E255FF4FA59118
:10073000B4918C559F4FFC01C591D4919FB7611125
:1007400008C0F8948C91209582238C938881822311
:100750000AC0623051F4F8948C91322F3095832383
:100760008C938881822B888304C0F8948C91822B8F
:100770008C939FBFDF91CF9108950F931F93CF93D9
:10078000DF931F92CDB7DEB7282F30E0F901E8598B
:10079000FF4F8491F901E458FF4F1491F901E0579C
:1007A000FF4F04910023C9F0882321F069830E9440
:1007B0005B036981E02FF0E0EE0FFF1FEC55FF4F68
:1007C000A591B4919FB7F8948C91611103C01095D5
:1007D000812301C0812B8C939FBF0F90DF91CF911C
:1007E0001F910F910895CF92DF92EF92FF920F9396
:1007F0001F93CF93DF936C017A01EB01E60EF71E96
:1008000000E010E0CE15DF0561F06991D601ED91B1
:10081000FC910190F081E02DC6010995080F191F88
:10082000F1CFC801DF91CF911F910F91FF90EF9011
:10083000DF90CF9008956115710581F0DB010D9077
:100840000020E9F7AD0141505109461B570BDC016F
:10085000ED91FC910280F381E02D099480E090E01D
:1008600008950C941B04DC01ED91FC910190F08142
:10087000E02D09940F931F93CF93DF93EC016DE06C
:100880000E9433048C016AE0CE010E943304800F81
:10089000911FDF91CF911F910F9108950F931F9397
:1008A000CF93DF93EC010E941B048C01CE010E94C8
:1008B0003A04800F911FDF91CF911F910F910895FE
:1008C0008F929F92AF92BF92CF92DF92EF92FF9260
:1008D0000F931F93CF93DF93CDB7DEB7A1970FB6DA
:1008E000F894DEBF0FBECDBF7C01C42EE52FCB0137
:1008F000D22E19A221E02D1510F02AE0D22E8E0161
:100900000F5D1F4F8D2C912CA12CB12C6C2D7E2FA7
:10091000A50194010E94C5098C2DD29E8019112435
:10092000015011098A3014F4805D01C0895CF8011E
:100930008083211531054105510521F0C22EE32F99
:10094000CA01E4CFB801C7010E941B04A1960FB6EB
:10095000F894DEBF0FBECDBFDF91CF911F910F91F5
:10096000FF90EF90DF90CF90BF90AF909F908F90CF
:100970000895CF92DF92EF92FF920F931F93CF9340
:10098000DF93EC016A017B012115310579F4E881DF
:10099000F9810190F081E02D642FDF91CF911F91BB
:1009A0000F91FF90EF90DF90CF9009942A3031059E
:1009B000E9F477FF1AC06DE20E9433048C014427EA
:1009C0005527BA014C195D096E097F092AE0CE014D
:1009D0000E946004800F911FDF91CF911F910F91B2
:1009E000FF90EF90DF90CF9008952AE0B701A60125
:1009F000CE01DF91CF911F910F91FF90EF90DF908B
:100A0000CF900C9460040F931F93CF93DF93EC016E
:100A10009A01AB01662757FD6095762F0E94B904B5
:100A20008C01CE010E943A04800F911FDF91CF917B
:100A30001F910F910895FC0124853585F901E05C33
:100A4000FF4F80819181F901EE5BFF4F2081318161
:100A5000821B930B8F7399270895FC0184859585DC
:100A6000FC01E05CFF4F40815181FC01EE5BFF4FD8
:100A7000208131814217530741F00190F081E02D30
:100A8000E80FF91F808190E008958FEF9FEF0895A0
:100A9000FC0184859585FC01E05CFF4F408151811C
:100AA000FC01EE5BFF4F208131814217530779F043
:100AB000A081B181A80FB91F8C91208131812F5F56
:100AC0003F4F2F7333273183208390E008958FEFBA
:100AD0009FEF0895FC0181A1882329F0A489B5899D
:100AE0008C9186FFFBCF11A20895CF93DF93FC0179
:100AF00026853785D901A05CBF4F8D919C911197B8
:100B000001968F739927E901CE5BDF4F48815981A8
:100B100084179507D9F30D90BC91A02DA20FB31F98
:100B20006C93A685B785A05CBF4F11969C938E935E
:100B3000A689B7892C9181E090E0078C02C0880FCC
:100B4000991F0A94E2F7282B2C9381E081A3048853
:100B5000F589E02D80818064808381E090E0DF91E1
:100B6000CF91089508951F920F920FB60F921124FE
:100B70002F933F934F938F939F93EF93FF93809186
:100B8000C00082FD1CC04091C60080913702909148
:100B9000380201968F7399272091390230913A02D9
:100BA0008217930771F0E0913702F0913802E95013
:100BB000FE4F4083909338028093370202C08091A9
:100BC000C600FF91EF919F918F914F913F912F918F
:100BD0000F900FBE0F901F90189581E991E00E9431
:100BE0001B05892B11F00C94B20508951F920F92EA
:100BF0000FB60F9211242F933F938F939F93EF93F0
:100C0000FF932091F3013091F4018091F5019091CF
:100C1000F6012817390731F48091C1008F7D809348
:100C2000C10014C0E091F501F091F601ED54FE4FC2
:100C300020818091F5019091F60101968F7399279B
:100C40009093F6018093F5012093C600FF91EF91F8
:100C50009F918F913F912F910F900FBE0F901F90FA
:100C60001895CF92DF92EF92FF92CF93DF93EC0132
:100C70006A017B01411581EE580761057105F9F0A4
:100C8000EC89FD8981E090E008A002C0880F991FDF
:100C90000A94E2F7808360E079E08DE390E0A701B9
:100CA00096010E94C5092150310941095109569503
:100CB000479537952795211580E1380798F0EC89FD
:100CC000FD89108260E874E88EE190E0A70196014A
:100CD0000E94C5092150310941095109569547958E
:100CE00037952795E889F9893083EA89FB8920833C
:100CF00019A2EE89FF89408181E090E09C010C8C73
:100D000002C0220F331F0A94E2F7422B4083EE8980
:100D1000FF8940819C010D8C02C0220F331F0A9471
:100D2000E2F7422B4083EE89FF8940819C010E8CC3
:100D300002C0220F331F0A94E2F7422B4083EE8950
:100D4000FF8920810F8C02C0880F991F0A94E2F757
:100D5000809582238083DF91CF91FF90EF90DF9089
:100D6000CF900895109294011092930188EE93E031
:100D7000A0E0B0E08093950190939601A093970135
:100D8000B09398018FE491E0909392018093910148
:100D900087EF91E090939E0180939D0183EB91E01A
:100DA0009093A00180939F0185EC90E09093A20125
:100DB0008093A10184EC90E09093A4018093A3011F
:100DC00080EC90E09093A6018093A50181EC90E0E7
:100DD0009093A8018093A70182EC90E09093AA01E0
:100DE0008093A90186EC90E09093AC018093AB01D5
:100DF00084E08093AD0183E08093AE0187E080932F
:100E0000AF0185E08093B00181E08093B101089546
:100E10003F924F925F926F927F928F929F92AF928A
:100E2000BF92CF92DF92EF92FF920F931F93CF93D7
:100E3000DF9300D000D0CDB7DEB78B0129013A0196
:100E400090910401981721F09F3F09F0D3C104C08D
:100E5000E8EBF0E0349081C080930401E8EBF0E02F
:100E6000E491EF3F09F4C6C1E13031F1E23009F419
:100E70004BC0E11171C014BC15BC94B5926094BD17
:100E800095B5916095BD282F30E0F901E057FF4FEF
:100E9000E491F0E0EE0FFF1FEC55FF4F45915491A8
:100EA00050934B0240934A02F901E458FF4F2491BA
:100EB00020934902312C53C010928000109281007F
:100EC0009091810098609093810090918100916051
:100ED00090938100282F30E0F901E057FF4FE49113
:100EE000F0E0EE0FFF1FEC55FF4F459154915093EA
:100EF000440240934302F901E458FF4F24912093A8
:100F00004202332433942BC01092B0001092B100EF
:100F10009091B00092609093B0009091B100916078
:100F20009093B100282F30E0F901E057FF4FE49192
:100F3000F0E0EE0FFF1FEC55FF4F45915491509399
:100F40003D0240933C02F901E458FF4F2491209365
:100F50003B0252E0352E03C03E2E37FC4BC161E010
:100F60000E9484034801A12CB12C832D8D7F09F0B0
:100F7000C0C060E072E18AE790E0A50194010E94A0
:100F8000E70929833A834B835C8369017A0181E015
:100F9000C81AD108E108F1089FEFC916D104E1048D
:100FA000F10409F008F49AC060E472E48FE090E084
:100FB000A50194010E94E70969017A01E1E0CE1AD6
:100FC000D108E108F108F2E03F1219C08FEFC8160E
:100FD000D104E104F10409F008F487C060E970ED80
:100FE00083E090E0A50194010E94E70969017A017C
:100FF00091E0C91AD108E108F10883E001C082E05C
:10100000EFEFCE16D104E104F10409F008F467C053
:1010100068E478EE81E090E0A50194010E94E70980
:1010200069017A01F1E0CF1AD108E108F108332013
:10103000E1F082E038121BC09FEFC916D104E10431
:10104000F10409F008F4D4C064E274EF80E090E0A9
:10105000A50194010E94E70969017A01E1E0CE1A35
:10106000D108E108F10885E003C083E001C084E015
:10107000FFEFCF16D104E104F10489F180F162E1C0
:101080007AE780E090E0A50194010E94E7096901F8
:101090007A0181E0C81AD108E108F108311002C0D4
:1010A00084E001C086E09FEFC916D104E104F10499
:1010B000B1F0A8F0C980DA80EB80FC809AE0F5946A
:1010C000E794D794C7949A95D1F7E1E0CE1AD10866
:1010D000E108F108332031F087E008C081E03320D7
:1010E00011F004C085E085BD34C082E08093B1007A
:1010F00030C060E072E18AE790E0A50194010E94AF
:10110000E70969017A01F1E0CF1AD108E108F10895
:10111000C114D10481E0E806F10488F068E478EEB7
:1011200081E090E0A50194010E94E70969017A013C
:1011300091E0C91AD108E108F10893E001C091E0FB
:10114000E1E03E1206C080918100887F892B809368
:101150008100411451046104710471F0D801AA0F97
:10116000BB1FA30192010E94AE0928EE33E040E0CC
:1011700050E00E94C50903C02FEF3FEFA901F1E045
:101180003F16A1F082E0381619F1311033C0C7BC08
:1011900020934C0230934D0240934E0250934F02E5
:1011A00080916E00826080936E0024C0D09289008E
:1011B000C092880020934502309346024093470234
:1011C0005093480280916F00826080936F0012C03C
:1011D000C092B30020933E0230933F0240934002FE
:1011E000509341028091700082608093700002C031
:1011F00084E07CCF0F900F900F900F90DF91CF91F4
:101200001F910F91FF90EF90DF90CF90BF90AF9024
:101210009F908F907F906F905F904F903F90089538
:10122000813039F018F0823051F0089510926E003C
:10123000089580916F008D7F80936F000895809155
:1012400070008D7F8093700081E08093B00080916A
:10125000B100887F84608093B1001092B30008953C
:10126000CF93C82F809104018C1307C0E8EBF0E006
:1012700084919FEF9093040101C08FEF0E941009A9
:1012800060E08C2FCF910C94BD031F920F920FB68C
:101290000F9211242F933F934F935F936F937F93FC
:1012A0008F939F93AF93BF93EF93FF9380913E02F1
:1012B00090913F02A0914002B0914102892B8A2B6C
:1012C0008B2B51F190913B02E0913C02F0913D0259
:1012D00080818927808380913E0290913F02A09176
:1012E0004002B0914102181619061A061B06C4F4F2
:1012F00080913E0290913F02A0914002B091410244
:101300000197A109B10980933E0290933F02A093F7
:101310004002B093410204C0809104010E94300950
:10132000FF91EF91BF91AF919F918F917F916F91BD
:101330005F914F913F912F910F900FBE0F901F9093
:1013400018950E9420030E948900CDEED5E00E94EE
:10135000AE002097E1F30E94ED05F9CF0E94060A46
:10136000A59F900DB49F900DA49F800D911D1124F9
:101370000895991B79E004C0991F961708F0961BF1
:10138000881F7A95C9F780950895A1E21A2EAA1BA5
:10139000BB1BFD010DC0AA1FBB1FEE1FFF1FA21725
:1013A000B307E407F50720F0A21BB30BE40BF50B22
:1013B000661F771F881F991F1A9469F760957095AB
:1013C000809590959B01AC01BD01CF010895052E3C
:1013D00097FB1EF400940E94FE0957FD07D00E945F
:1013E000C50907FC03D04EF40C94FE0950954095B6
:1013F000309521953F4F4F4F5F4F089590958095C1
:10140000709561957F4F8F4F9F4F0895A29FB001B8
:10141000B39FC001A39F700D811D1124911DB29F28
:10142000700D811D1124911D0895EE0FFF1F059071
:0A143000F491E02D0994F894FFCF29
:10143A0001000000FF70756C736557696474682059
:10144A003D200050726573732061206B65792061BD
:10145A006E6420636C69636B0053656E6420746FFD
:10146A0020737461727420736572766F2E2E2E004B
:10147A0052756E6E696E672E2E2E00000000007582
:0C148A0005F3031B0548052D056A05004D
:00000001FF
